{
  "_format": "hh-sol-artifact-1",
  "contractName": "Ssal",
  "sourceName": "contracts/Ssal.sol",
  "abi": [
    {
      "anonymous": false,
      "inputs": [
        {
          "indexed": false,
          "internalType": "string",
          "name": "rollupId",
          "type": "string"
        },
        {
          "indexed": false,
          "internalType": "uint64",
          "name": "blockHeight",
          "type": "uint64"
        },
        {
          "indexed": false,
          "internalType": "string",
          "name": "commitment",
          "type": "string"
        }
      ],
      "name": "BlockCommitmentEvent",
      "type": "event"
    },
    {
      "anonymous": false,
      "inputs": [
        {
          "indexed": false,
          "internalType": "bytes32",
          "name": "clusterID",
          "type": "bytes32"
        }
      ],
      "name": "InitializeClusterEvent",
      "type": "event"
    },
    {
      "inputs": [
        {
          "internalType": "uint256",
          "name": "",
          "type": "uint256"
        }
      ],
      "name": "commitments",
      "outputs": [
        {
          "internalType": "string",
          "name": "rollupId",
          "type": "string"
        },
        {
          "internalType": "uint64",
          "name": "blockHeight",
          "type": "uint64"
        },
        {
          "internalType": "string",
          "name": "commitment",
          "type": "string"
        }
      ],
      "stateMutability": "view",
      "type": "function"
    },
    {
      "inputs": [
        {
          "internalType": "bytes32",
          "name": "clusterID",
          "type": "bytes32"
        },
        {
          "internalType": "address",
          "name": "_sequencer",
          "type": "address"
        }
      ],
      "name": "deregisterSequencer",
      "outputs": [],
      "stateMutability": "nonpayable",
      "type": "function"
    },
    {
      "inputs": [
        {
          "internalType": "bytes32",
          "name": "clusterID",
          "type": "bytes32"
        }
      ],
      "name": "getSequencers",
      "outputs": [
        {
          "internalType": "address[30]",
          "name": "",
          "type": "address[30]"
        }
      ],
      "stateMutability": "view",
      "type": "function"
    },
    {
      "inputs": [
        {
          "internalType": "address",
          "name": "_sequencer",
          "type": "address"
        },
        {
          "internalType": "address",
          "name": "_rollup",
          "type": "address"
        }
      ],
      "name": "initializeCluster",
      "outputs": [],
      "stateMutability": "nonpayable",
      "type": "function"
    },
    {
      "inputs": [
        {
          "internalType": "string",
          "name": "rollupId",
          "type": "string"
        },
        {
          "internalType": "uint64",
          "name": "blockHeight",
          "type": "uint64"
        },
        {
          "internalType": "string",
          "name": "commitment",
          "type": "string"
        }
      ],
      "name": "registerBlockCommitment",
      "outputs": [],
      "stateMutability": "nonpayable",
      "type": "function"
    },
    {
      "inputs": [
        {
          "internalType": "bytes32",
          "name": "clusterID",
          "type": "bytes32"
        },
        {
          "internalType": "address",
          "name": "_sequencer",
          "type": "address"
        }
      ],
      "name": "registerSequencer",
      "outputs": [],
      "stateMutability": "nonpayable",
      "type": "function"
    }
  ],
  "bytecode": "0x608060405234801561001057600080fd5b50610e90806100206000396000f3fe608060405234801561001057600080fd5b50600436106100625760003560e01c8063399a469c1461006757806342d8a7471461008357806349ce8997146100b357806366f439c6146100e5578063c27ac50c14610101578063fecca43a1461011d575b600080fd5b610081600480360381019061007c9190610943565b610139565b005b61009d60048036038101906100989190610a04565b610179565b6040516100aa9190610b0e565b60405180910390f35b6100cd60048036038101906100c89190610b60565b61020f565b6040516100dc93929190610c1b565b60405180910390f35b6100ff60048036038101906100fa9190610c8c565b61036d565b005b61011b60048036038101906101169190610ccc565b61046f565b005b61013760048036038101906101329190610c8c565b6105e9565b005b7fdc53153c032945928dc6c3150807750702399c56329766e3112a4376bd36d82883838360405161016c93929190610c1b565b60405180910390a1505050565b610181610786565b600080838152602001908152602001600020600301601e806020026040519081016040528092919082601e8015610203576020028201915b8160009054906101000a900473ffffffffffffffffffffffffffffffffffffffff1673ffffffffffffffffffffffffffffffffffffffff16815260200190600101908083116101b9575b50505050509050919050565b6001818154811061021f57600080fd5b906000526020600020906003020160009150905080600001805461024290610d3b565b80601f016020809104026020016040519081016040528092919081815260200182805461026e90610d3b565b80156102bb5780601f10610290576101008083540402835291602001916102bb565b820191906000526020600020905b81548152906001019060200180831161029e57829003601f168201915b5050505050908060010160009054906101000a900467ffffffffffffffff16908060020180546102ea90610d3b565b80601f016020809104026020016040519081016040528092919081815260200182805461031690610d3b565b80156103635780601f1061033857610100808354040283529160200191610363565b820191906000526020600020905b81548152906001019060200180831161034657829003601f168201915b5050505050905083565b60005b601e81101561046a578173ffffffffffffffffffffffffffffffffffffffff1660008085815260200190815260200160002060030182601e81106103b7576103b6610d6c565b5b0160009054906101000a900473ffffffffffffffffffffffffffffffffffffffff1673ffffffffffffffffffffffffffffffffffffffff160361045d57600080600085815260200190815260200160002060030182601e811061041d5761041c610d6c565b5b0160006101000a81548173ffffffffffffffffffffffffffffffffffffffff021916908373ffffffffffffffffffffffffffffffffffffffff1602179055505b8080600101915050610370565b505050565b6000814340604051602001610485929190610e04565b6040516020818303038152906040528051906020012090503360008083815260200190815260200160002060000160006101000a81548173ffffffffffffffffffffffffffffffffffffffff021916908373ffffffffffffffffffffffffffffffffffffffff1602179055508160008083815260200190815260200160002060010160006101000a81548173ffffffffffffffffffffffffffffffffffffffff021916908373ffffffffffffffffffffffffffffffffffffffff160217905550826000808381526020019081526020016000206003016000601e811061056e5761056d610d6c565b5b0160006101000a81548173ffffffffffffffffffffffffffffffffffffffff021916908373ffffffffffffffffffffffffffffffffffffffff1602179055507faf87f9a392f32e3cd8ff54ac5c459aabcbcb2a7a680c61b9e2b2a442f6bf237a816040516105dc9190610e3f565b60405180910390a1505050565b6000601e905060005b601e81101561070c578273ffffffffffffffffffffffffffffffffffffffff1660008086815260200190815260200160002060030182601e811061063957610638610d6c565b5b0160009054906101000a900473ffffffffffffffffffffffffffffffffffffffff1673ffffffffffffffffffffffffffffffffffffffff160361067b57600080fd5b600073ffffffffffffffffffffffffffffffffffffffff1660008086815260200190815260200160002060030182601e81106106ba576106b9610d6c565b5b0160009054906101000a900473ffffffffffffffffffffffffffffffffffffffff1673ffffffffffffffffffffffffffffffffffffffff16036106ff5780915061070c565b80806001019150506105f2565b50601e810361071a57600080fd5b8160008085815260200190815260200160002060030182601e811061074257610741610d6c565b5b0160006101000a81548173ffffffffffffffffffffffffffffffffffffffff021916908373ffffffffffffffffffffffffffffffffffffffff160217905550505050565b604051806103c00160405280601e90602082028036833780820191505090505090565b6000604051905090565b600080fd5b600080fd5b600080fd5b600080fd5b6000601f19601f8301169050919050565b7f4e487b7100000000000000000000000000000000000000000000000000000000600052604160045260246000fd5b610810826107c7565b810181811067ffffffffffffffff8211171561082f5761082e6107d8565b5b80604052505050565b60006108426107a9565b905061084e8282610807565b919050565b600067ffffffffffffffff82111561086e5761086d6107d8565b5b610877826107c7565b9050602081019050919050565b82818337600083830152505050565b60006108a66108a184610853565b610838565b9050828152602081018484840111156108c2576108c16107c2565b5b6108cd848285610884565b509392505050565b600082601f8301126108ea576108e96107bd565b5b81356108fa848260208601610893565b91505092915050565b600067ffffffffffffffff82169050919050565b61092081610903565b811461092b57600080fd5b50565b60008135905061093d81610917565b92915050565b60008060006060848603121561095c5761095b6107b3565b5b600084013567ffffffffffffffff81111561097a576109796107b8565b5b610986868287016108d5565b93505060206109978682870161092e565b925050604084013567ffffffffffffffff8111156109b8576109b76107b8565b5b6109c4868287016108d5565b9150509250925092565b6000819050919050565b6109e1816109ce565b81146109ec57600080fd5b50565b6000813590506109fe816109d8565b92915050565b600060208284031215610a1a57610a196107b3565b5b6000610a28848285016109ef565b91505092915050565b6000601e9050919050565b600081905092915050565b6000819050919050565b600073ffffffffffffffffffffffffffffffffffffffff82169050919050565b6000610a7c82610a51565b9050919050565b610a8c81610a71565b82525050565b6000610a9e8383610a83565b60208301905092915050565b6000602082019050919050565b610ac081610a31565b610aca8184610a3c565b9250610ad582610a47565b8060005b83811015610b06578151610aed8782610a92565b9650610af883610aaa565b925050600181019050610ad9565b505050505050565b60006103c082019050610b246000830184610ab7565b92915050565b6000819050919050565b610b3d81610b2a565b8114610b4857600080fd5b50565b600081359050610b5a81610b34565b92915050565b600060208284031215610b7657610b756107b3565b5b6000610b8484828501610b4b565b91505092915050565b600081519050919050565b600082825260208201905092915050565b60005b83811015610bc7578082015181840152602081019050610bac565b60008484015250505050565b6000610bde82610b8d565b610be88185610b98565b9350610bf8818560208601610ba9565b610c01816107c7565b840191505092915050565b610c1581610903565b82525050565b60006060820190508181036000830152610c358186610bd3565b9050610c446020830185610c0c565b8181036040830152610c568184610bd3565b9050949350505050565b610c6981610a71565b8114610c7457600080fd5b50565b600081359050610c8681610c60565b92915050565b60008060408385031215610ca357610ca26107b3565b5b6000610cb1858286016109ef565b9250506020610cc285828601610c77565b9150509250929050565b60008060408385031215610ce357610ce26107b3565b5b6000610cf185828601610c77565b9250506020610d0285828601610c77565b9150509250929050565b7f4e487b7100000000000000000000000000000000000000000000000000000000600052602260045260246000fd5b60006002820490506001821680610d5357607f821691505b602082108103610d6657610d65610d0c565b5b50919050565b7f4e487b7100000000000000000000000000000000000000000000000000000000600052603260045260246000fd5b60008160601b9050919050565b6000610db382610d9b565b9050919050565b6000610dc582610da8565b9050919050565b610ddd610dd882610a71565b610dba565b82525050565b6000819050919050565b610dfe610df9826109ce565b610de3565b82525050565b6000610e108285610dcc565b601482019150610e208284610ded565b6020820191508190509392505050565b610e39816109ce565b82525050565b6000602082019050610e546000830184610e30565b9291505056fea26469706673582212201b0a599aff3bb51fcc7923be551b6521938de8de539cdcc4bee1757953471caf64736f6c63430008180033",
  "linkReferences": {},
  "deployedLinkReferences": {}
}