{
  "_format": "hh-sol-artifact-1",
  "contractName": "Ssal",
  "sourceName": "contracts/Ssal.sol",
  "abi": [
    {
      "anonymous": false,
      "inputs": [
        {
          "indexed": false,
          "internalType": "bytes32",
          "name": "clusterID",
          "type": "bytes32"
        },
        {
          "indexed": false,
          "internalType": "address",
          "name": "_sequencer",
          "type": "address"
        }
      ],
      "name": "DeregisterSequencerEvent",
      "type": "event"
    },
    {
      "anonymous": false,
      "inputs": [
        {
          "indexed": false,
          "internalType": "bytes32",
          "name": "clusterID",
          "type": "bytes32"
        }
      ],
      "name": "InitializeClusterEvent",
      "type": "event"
    },
    {
      "anonymous": false,
      "inputs": [
        {
          "indexed": false,
          "internalType": "bytes32",
          "name": "clusterID",
          "type": "bytes32"
        },
        {
          "indexed": false,
          "internalType": "address",
          "name": "_sequencer",
          "type": "address"
        }
      ],
      "name": "RegisterSequencerEvent",
      "type": "event"
    },
    {
      "inputs": [
        {
          "internalType": "bytes32",
          "name": "clusterID",
          "type": "bytes32"
        },
        {
          "internalType": "address",
          "name": "_sequencer",
          "type": "address"
        }
      ],
      "name": "deregisterSequencer",
      "outputs": [],
      "stateMutability": "nonpayable",
      "type": "function"
    },
    {
      "inputs": [
        {
          "internalType": "bytes32",
          "name": "clusterID",
          "type": "bytes32"
        }
      ],
      "name": "getSequencers",
      "outputs": [
        {
          "internalType": "address[30]",
          "name": "",
          "type": "address[30]"
        }
      ],
      "stateMutability": "view",
      "type": "function"
    },
    {
      "inputs": [
        {
          "internalType": "address",
          "name": "_sequencer",
          "type": "address"
        },
        {
          "internalType": "address",
          "name": "_rollup",
          "type": "address"
        }
      ],
      "name": "initializeCluster",
      "outputs": [],
      "stateMutability": "nonpayable",
      "type": "function"
    },
    {
      "inputs": [
        {
          "internalType": "bytes32",
          "name": "clusterID",
          "type": "bytes32"
        },
        {
          "internalType": "address",
          "name": "_sequencer",
          "type": "address"
        }
      ],
      "name": "registerSequencer",
      "outputs": [],
      "stateMutability": "nonpayable",
      "type": "function"
    }
  ],
  "bytecode": "0x608060405234801561001057600080fd5b50610982806100206000396000f3fe608060405234801561001057600080fd5b506004361061004c5760003560e01c806342d8a7471461005157806366f439c614610081578063c27ac50c1461009d578063fecca43a146100b9575b600080fd5b61006b60048036038101906100669190610654565b6100d5565b604051610078919061075e565b60405180910390f35b61009b600480360381019061009691906107a6565b61016b565b005b6100b760048036038101906100b291906107e6565b6102a6565b005b6100d360048036038101906100ce91906107a6565b610420565b005b6100dd6105f6565b600080838152602001908152602001600020600301601e806020026040519081016040528092919082601e801561015f576020028201915b8160009054906101000a900473ffffffffffffffffffffffffffffffffffffffff1673ffffffffffffffffffffffffffffffffffffffff1681526020019060010190808311610115575b50505050509050919050565b60005b601e811015610268578173ffffffffffffffffffffffffffffffffffffffff1660008085815260200190815260200160002060030182601e81106101b5576101b4610826565b5b0160009054906101000a900473ffffffffffffffffffffffffffffffffffffffff1673ffffffffffffffffffffffffffffffffffffffff160361025b57600080600085815260200190815260200160002060030182601e811061021b5761021a610826565b5b0160006101000a81548173ffffffffffffffffffffffffffffffffffffffff021916908373ffffffffffffffffffffffffffffffffffffffff1602179055505b808060010191505061016e565b507f0fa86ab08bce071175bc33cb72ae73db2bc41d446e7e3363c8760c9d216ae696828260405161029a929190610873565b60405180910390a15050565b60008143406040516020016102bc929190610905565b6040516020818303038152906040528051906020012090503360008083815260200190815260200160002060000160006101000a81548173ffffffffffffffffffffffffffffffffffffffff021916908373ffffffffffffffffffffffffffffffffffffffff1602179055508160008083815260200190815260200160002060010160006101000a81548173ffffffffffffffffffffffffffffffffffffffff021916908373ffffffffffffffffffffffffffffffffffffffff160217905550826000808381526020019081526020016000206003016000601e81106103a5576103a4610826565b5b0160006101000a81548173ffffffffffffffffffffffffffffffffffffffff021916908373ffffffffffffffffffffffffffffffffffffffff1602179055507faf87f9a392f32e3cd8ff54ac5c459aabcbcb2a7a680c61b9e2b2a442f6bf237a816040516104139190610931565b60405180910390a1505050565b6000601e905060005b601e811015610543578273ffffffffffffffffffffffffffffffffffffffff1660008086815260200190815260200160002060030182601e81106104705761046f610826565b5b0160009054906101000a900473ffffffffffffffffffffffffffffffffffffffff1673ffffffffffffffffffffffffffffffffffffffff16036104b257600080fd5b600073ffffffffffffffffffffffffffffffffffffffff1660008086815260200190815260200160002060030182601e81106104f1576104f0610826565b5b0160009054906101000a900473ffffffffffffffffffffffffffffffffffffffff1673ffffffffffffffffffffffffffffffffffffffff160361053657809150610543565b8080600101915050610429565b50601e810361055157600080fd5b8160008085815260200190815260200160002060030182601e811061057957610578610826565b5b0160006101000a81548173ffffffffffffffffffffffffffffffffffffffff021916908373ffffffffffffffffffffffffffffffffffffffff1602179055507f87d8bedc09924d8d428636c416b876a334b7655285b9e447a6da82c14f5d8e6383836040516105e9929190610873565b60405180910390a1505050565b604051806103c00160405280601e90602082028036833780820191505090505090565b600080fd5b6000819050919050565b6106318161061e565b811461063c57600080fd5b50565b60008135905061064e81610628565b92915050565b60006020828403121561066a57610669610619565b5b60006106788482850161063f565b91505092915050565b6000601e9050919050565b600081905092915050565b6000819050919050565b600073ffffffffffffffffffffffffffffffffffffffff82169050919050565b60006106cc826106a1565b9050919050565b6106dc816106c1565b82525050565b60006106ee83836106d3565b60208301905092915050565b6000602082019050919050565b61071081610681565b61071a818461068c565b925061072582610697565b8060005b8381101561075657815161073d87826106e2565b9650610748836106fa565b925050600181019050610729565b505050505050565b60006103c0820190506107746000830184610707565b92915050565b610783816106c1565b811461078e57600080fd5b50565b6000813590506107a08161077a565b92915050565b600080604083850312156107bd576107bc610619565b5b60006107cb8582860161063f565b92505060206107dc85828601610791565b9150509250929050565b600080604083850312156107fd576107fc610619565b5b600061080b85828601610791565b925050602061081c85828601610791565b9150509250929050565b7f4e487b7100000000000000000000000000000000000000000000000000000000600052603260045260246000fd5b61085e8161061e565b82525050565b61086d816106c1565b82525050565b60006040820190506108886000830185610855565b6108956020830184610864565b9392505050565b60008160601b9050919050565b60006108b48261089c565b9050919050565b60006108c6826108a9565b9050919050565b6108de6108d9826106c1565b6108bb565b82525050565b6000819050919050565b6108ff6108fa8261061e565b6108e4565b82525050565b600061091182856108cd565b60148201915061092182846108ee565b6020820191508190509392505050565b60006020820190506109466000830184610855565b9291505056fea2646970667358221220959712ddb0d7a6e8def6a50c3357ace3fe8521afeaa329de5cac2129ee676fb064736f6c63430008180033",
  "linkReferences": {},
  "deployedLinkReferences": {}
}