{
    "abi": [
        {
            "type": "constructor",
            "inputs": [
                {
                    "name": "_avsDirectory",
                    "type": "address",
                    "internalType": "address"
                },
                {
                    "name": "_stakeRegistry",
                    "type": "address",
                    "internalType": "address"
                },
                {
                    "name": "_delegationManager",
                    "type": "address",
                    "internalType": "address"
                }
            ],
            "stateMutability": "nonpayable"
        },
        {
            "type": "function",
            "name": "allTaskHashes",
            "inputs": [
                {
                    "name": "",
                    "type": "uint32",
                    "internalType": "uint32"
                }
            ],
            "outputs": [
                {
                    "name": "",
                    "type": "bytes32",
                    "internalType": "bytes32"
                }
            ],
            "stateMutability": "view"
        },
        {
            "type": "function",
            "name": "allTaskResponses",
            "inputs": [
                {
                    "name": "",
                    "type": "address",
                    "internalType": "address"
                },
                {
                    "name": "",
                    "type": "uint32",
                    "internalType": "uint32"
                }
            ],
            "outputs": [
                {
                    "name": "",
                    "type": "bytes",
                    "internalType": "bytes"
                }
            ],
            "stateMutability": "view"
        },
        {
            "type": "function",
            "name": "avsDirectory",
            "inputs": [],
            "outputs": [
                {
                    "name": "",
                    "type": "address",
                    "internalType": "address"
                }
            ],
            "stateMutability": "view"
        },
        {
            "type": "function",
            "name": "createNewTask",
            "inputs": [
                {
                    "name": "_commitment",
                    "type": "bytes",
                    "internalType": "bytes"
                },
                {
                    "name": "_blockNumber",
                    "type": "uint64",
                    "internalType": "uint64"
                },
                {
                    "name": "_rollupID",
                    "type": "uint32",
                    "internalType": "uint32"
                },
                {
                    "name": "_clusterID",
                    "type": "bytes32",
                    "internalType": "bytes32"
                }
            ],
            "outputs": [],
            "stateMutability": "nonpayable"
        },
        {
            "type": "function",
            "name": "deregisterOperatorFromAVS",
            "inputs": [
                {
                    "name": "operator",
                    "type": "address",
                    "internalType": "address"
                }
            ],
            "outputs": [],
            "stateMutability": "nonpayable"
        },
        {
            "type": "function",
            "name": "getOperatorRestakedStrategies",
            "inputs": [
                {
                    "name": "_operator",
                    "type": "address",
                    "internalType": "address"
                }
            ],
            "outputs": [
                {
                    "name": "",
                    "type": "address[]",
                    "internalType": "address[]"
                }
            ],
            "stateMutability": "view"
        },
        {
            "type": "function",
            "name": "getRestakeableStrategies",
            "inputs": [],
            "outputs": [
                {
                    "name": "",
                    "type": "address[]",
                    "internalType": "address[]"
                }
            ],
            "stateMutability": "view"
        },
        {
            "type": "function",
            "name": "latestTaskNum",
            "inputs": [],
            "outputs": [
                {
                    "name": "",
                    "type": "uint32",
                    "internalType": "uint32"
                }
            ],
            "stateMutability": "view"
        },
        {
            "type": "function",
            "name": "operatorHasMinimumWeight",
            "inputs": [
                {
                    "name": "operator",
                    "type": "address",
                    "internalType": "address"
                }
            ],
            "outputs": [
                {
                    "name": "",
                    "type": "bool",
                    "internalType": "bool"
                }
            ],
            "stateMutability": "view"
        },
        {
            "type": "function",
            "name": "operatorRegistered",
            "inputs": [
                {
                    "name": "_operator",
                    "type": "address",
                    "internalType": "address"
                }
            ],
            "outputs": [
                {
                    "name": "",
                    "type": "bool",
                    "internalType": "bool"
                }
            ],
            "stateMutability": "view"
        },
        {
            "type": "function",
            "name": "owner",
            "inputs": [],
            "outputs": [
                {
                    "name": "",
                    "type": "address",
                    "internalType": "address"
                }
            ],
            "stateMutability": "view"
        },
        {
            "type": "function",
            "name": "pause",
            "inputs": [
                {
                    "name": "newPausedStatus",
                    "type": "uint256",
                    "internalType": "uint256"
                }
            ],
            "outputs": [],
            "stateMutability": "nonpayable"
        },
        {
            "type": "function",
            "name": "pauseAll",
            "inputs": [],
            "outputs": [],
            "stateMutability": "nonpayable"
        },
        {
            "type": "function",
            "name": "paused",
            "inputs": [
                {
                    "name": "index",
                    "type": "uint8",
                    "internalType": "uint8"
                }
            ],
            "outputs": [
                {
                    "name": "",
                    "type": "bool",
                    "internalType": "bool"
                }
            ],
            "stateMutability": "view"
        },
        {
            "type": "function",
            "name": "paused",
            "inputs": [],
            "outputs": [
                {
                    "name": "",
                    "type": "uint256",
                    "internalType": "uint256"
                }
            ],
            "stateMutability": "view"
        },
        {
            "type": "function",
            "name": "pauserRegistry",
            "inputs": [],
            "outputs": [
                {
                    "name": "",
                    "type": "address",
                    "internalType": "contract IPauserRegistry"
                }
            ],
            "stateMutability": "view"
        },
        {
            "type": "function",
            "name": "payForRange",
            "inputs": [
                {
                    "name": "rangePayments",
                    "type": "tuple[]",
                    "internalType": "struct IPaymentCoordinator.RangePayment[]",
                    "components": [
                        {
                            "name": "strategiesAndMultipliers",
                            "type": "tuple[]",
                            "internalType": "struct IPaymentCoordinator.StrategyAndMultiplier[]",
                            "components": [
                                {
                                    "name": "strategy",
                                    "type": "address",
                                    "internalType": "contract IStrategy"
                                },
                                {
                                    "name": "multiplier",
                                    "type": "uint96",
                                    "internalType": "uint96"
                                }
                            ]
                        },
                        {
                            "name": "token",
                            "type": "address",
                            "internalType": "contract IERC20"
                        },
                        {
                            "name": "amount",
                            "type": "uint256",
                            "internalType": "uint256"
                        },
                        {
                            "name": "startTimestamp",
                            "type": "uint32",
                            "internalType": "uint32"
                        },
                        {
                            "name": "duration",
                            "type": "uint32",
                            "internalType": "uint32"
                        }
                    ]
                }
            ],
            "outputs": [],
            "stateMutability": "nonpayable"
        },
        {
            "type": "function",
            "name": "registerOperatorToAVS",
            "inputs": [
                {
                    "name": "operator",
                    "type": "address",
                    "internalType": "address"
                },
                {
                    "name": "operatorSignature",
                    "type": "tuple",
                    "internalType": "struct ISignatureUtils.SignatureWithSaltAndExpiry",
                    "components": [
                        {
                            "name": "signature",
                            "type": "bytes",
                            "internalType": "bytes"
                        },
                        {
                            "name": "salt",
                            "type": "bytes32",
                            "internalType": "bytes32"
                        },
                        {
                            "name": "expiry",
                            "type": "uint256",
                            "internalType": "uint256"
                        }
                    ]
                }
            ],
            "outputs": [],
            "stateMutability": "nonpayable"
        },
        {
            "type": "function",
            "name": "renounceOwnership",
            "inputs": [],
            "outputs": [],
            "stateMutability": "nonpayable"
        },
        {
            "type": "function",
            "name": "respondToTask",
            "inputs": [
                {
                    "name": "task",
                    "type": "tuple",
                    "internalType": "struct IHelloWorldServiceManager.Task",
                    "components": [
                        {
                            "name": "commitment",
                            "type": "bytes",
                            "internalType": "bytes"
                        },
                        {
                            "name": "blockNumber",
                            "type": "uint64",
                            "internalType": "uint64"
                        },
                        {
                            "name": "rollupID",
                            "type": "uint32",
                            "internalType": "uint32"
                        },
                        {
                            "name": "clusterID",
                            "type": "bytes32",
                            "internalType": "bytes32"
                        },
                        {
                            "name": "taskCreatedBlock",
                            "type": "uint32",
                            "internalType": "uint32"
                        }
                    ]
                },
                {
                    "name": "referenceTaskIndex",
                    "type": "uint32",
                    "internalType": "uint32"
                },
                {
                    "name": "signature",
                    "type": "bytes",
                    "internalType": "bytes"
                }
            ],
            "outputs": [],
            "stateMutability": "nonpayable"
        },
        {
            "type": "function",
            "name": "setPauserRegistry",
            "inputs": [
                {
                    "name": "newPauserRegistry",
                    "type": "address",
                    "internalType": "contract IPauserRegistry"
                }
            ],
            "outputs": [],
            "stateMutability": "nonpayable"
        },
        {
            "type": "function",
            "name": "stakeRegistry",
            "inputs": [],
            "outputs": [
                {
                    "name": "",
                    "type": "address",
                    "internalType": "address"
                }
            ],
            "stateMutability": "view"
        },
        {
            "type": "function",
            "name": "transferOwnership",
            "inputs": [
                {
                    "name": "newOwner",
                    "type": "address",
                    "internalType": "address"
                }
            ],
            "outputs": [],
            "stateMutability": "nonpayable"
        },
        {
            "type": "function",
            "name": "unpause",
            "inputs": [
                {
                    "name": "newPausedStatus",
                    "type": "uint256",
                    "internalType": "uint256"
                }
            ],
            "outputs": [],
            "stateMutability": "nonpayable"
        },
        {
            "type": "function",
            "name": "updateAVSMetadataURI",
            "inputs": [
                {
                    "name": "_metadataURI",
                    "type": "string",
                    "internalType": "string"
                }
            ],
            "outputs": [],
            "stateMutability": "nonpayable"
        },
        {
            "type": "event",
            "name": "Initialized",
            "inputs": [
                {
                    "name": "version",
                    "type": "uint8",
                    "indexed": false,
                    "internalType": "uint8"
                }
            ],
            "anonymous": false
        },
        {
            "type": "event",
            "name": "NewTaskCreated",
            "inputs": [
                {
                    "name": "taskIndex",
                    "type": "uint32",
                    "indexed": true,
                    "internalType": "uint32"
                },
                {
                    "name": "task",
                    "type": "tuple",
                    "indexed": false,
                    "internalType": "struct IHelloWorldServiceManager.Task",
                    "components": [
                        {
                            "name": "commitment",
                            "type": "bytes",
                            "internalType": "bytes"
                        },
                        {
                            "name": "blockNumber",
                            "type": "uint64",
                            "internalType": "uint64"
                        },
                        {
                            "name": "rollupID",
                            "type": "uint32",
                            "internalType": "uint32"
                        },
                        {
                            "name": "clusterID",
                            "type": "bytes32",
                            "internalType": "bytes32"
                        },
                        {
                            "name": "taskCreatedBlock",
                            "type": "uint32",
                            "internalType": "uint32"
                        }
                    ]
                },
                {
                    "name": "commitment",
                    "type": "bytes",
                    "indexed": false,
                    "internalType": "bytes"
                },
                {
                    "name": "blockNumber",
                    "type": "uint64",
                    "indexed": false,
                    "internalType": "uint64"
                },
                {
                    "name": "rollupID",
                    "type": "uint32",
                    "indexed": false,
                    "internalType": "uint32"
                },
                {
                    "name": "clusterID",
                    "type": "bytes32",
                    "indexed": false,
                    "internalType": "bytes32"
                },
                {
                    "name": "taskCreatedBlock",
                    "type": "uint32",
                    "indexed": false,
                    "internalType": "uint32"
                }
            ],
            "anonymous": false
        },
        {
            "type": "event",
            "name": "OwnershipTransferred",
            "inputs": [
                {
                    "name": "previousOwner",
                    "type": "address",
                    "indexed": true,
                    "internalType": "address"
                },
                {
                    "name": "newOwner",
                    "type": "address",
                    "indexed": true,
                    "internalType": "address"
                }
            ],
            "anonymous": false
        },
        {
            "type": "event",
            "name": "Paused",
            "inputs": [
                {
                    "name": "account",
                    "type": "address",
                    "indexed": true,
                    "internalType": "address"
                },
                {
                    "name": "newPausedStatus",
                    "type": "uint256",
                    "indexed": false,
                    "internalType": "uint256"
                }
            ],
            "anonymous": false
        },
        {
            "type": "event",
            "name": "PauserRegistrySet",
            "inputs": [
                {
                    "name": "pauserRegistry",
                    "type": "address",
                    "indexed": false,
                    "internalType": "contract IPauserRegistry"
                },
                {
                    "name": "newPauserRegistry",
                    "type": "address",
                    "indexed": false,
                    "internalType": "contract IPauserRegistry"
                }
            ],
            "anonymous": false
        },
        {
            "type": "event",
            "name": "TaskResponded",
            "inputs": [
                {
                    "name": "taskIndex",
                    "type": "uint32",
                    "indexed": true,
                    "internalType": "uint32"
                },
                {
                    "name": "commitment",
                    "type": "bytes",
                    "indexed": false,
                    "internalType": "bytes"
                },
                {
                    "name": "blockNumber",
                    "type": "uint64",
                    "indexed": false,
                    "internalType": "uint64"
                },
                {
                    "name": "rollupID",
                    "type": "uint32",
                    "indexed": false,
                    "internalType": "uint32"
                },
                {
                    "name": "clusterID",
                    "type": "bytes32",
                    "indexed": false,
                    "internalType": "bytes32"
                },
                {
                    "name": "taskCreatedBlock",
                    "type": "uint32",
                    "indexed": false,
                    "internalType": "uint32"
                },
                {
                    "name": "operator",
                    "type": "address",
                    "indexed": false,
                    "internalType": "address"
                }
            ],
            "anonymous": false
        },
        {
            "type": "event",
            "name": "Unpaused",
            "inputs": [
                {
                    "name": "account",
                    "type": "address",
                    "indexed": true,
                    "internalType": "address"
                },
                {
                    "name": "newPausedStatus",
                    "type": "uint256",
                    "indexed": false,
                    "internalType": "uint256"
                }
            ],
            "anonymous": false
        }
    ],
    "bytecode": {
        "object": "0x61010060405234801561001157600080fd5b5060405161300938038061300983398101604081905261003091610146565b6001600160a01b0380841660a052808316608052600060c081905290821660e052839083908361005e61006a565b50505050505050610189565b600054610100900460ff16156100d65760405162461bcd60e51b815260206004820152602760248201527f496e697469616c697a61626c653a20636f6e747261637420697320696e697469604482015266616c697a696e6760c81b606482015260840160405180910390fd5b60005460ff9081161015610128576000805460ff191660ff9081179091556040519081527f7f26b83ff96e1f2b6a682f133852f6798a09c465da95921460cefb38474024989060200160405180910390a15b565b80516001600160a01b038116811461014157600080fd5b919050565b60008060006060848603121561015b57600080fd5b6101648461012a565b92506101726020850161012a565b91506101806040850161012a565b90509250925092565b60805160a05160c05160e051612df3610216600039600061169e01526000818161140d01526114e301526000818161028d015281816119090152818161195f01526119d601526000818161024e015281816106d101528181610b4d01528181610d0501528181610e0501528181610ea401528181610f48015281816115560152611a110152612df36000f3fe608060405234801561001057600080fd5b50600436106101735760003560e01c8063886f1195116100de578063a98fb35511610097578063e481af9d11610071578063e481af9d14610392578063ec7fbb311461039a578063f2fde38b146103ad578063fabc1cbc146103c057600080fd5b8063a98fb3551461034c578063c20bab7f1461035f578063d5dba76d1461037f57600080fd5b8063886f1195146102ca5780638b00ce7c146102dd5780638da5cb5b146103025780639926ee7d146103135780639fc5b9ff14610326578063a364f4da1461033957600080fd5b80635ac86ab7116101305780635ac86ab71461020e5780635c975abb1461024157806368304835146102495780636b3aa72e146102885780636ea04105146102af578063715018a6146102c257600080fd5b806310d67a2f14610178578063136439dd1461018d5780631b445516146101a05780632d89f6fc146101b357806333cfb7b7146101e6578063595c6a6714610206575b600080fd5b61018b610186366004611ea7565b6103d3565b005b61018b61019b366004611ecb565b61048f565b61018b6101ae366004611ee4565b6105ce565b6101d36101c1366004611f72565b60ca6020526000908152604090205481565b6040519081526020015b60405180910390f35b6101f96101f4366004611ea7565b6105e4565b6040516101dd9190611f8d565b61018b6105f5565b61023161021c366004611fd9565b609854600160ff9092169190911b9081161490565b60405190151581526020016101dd565b6098546101d3565b6102707f000000000000000000000000000000000000000000000000000000000000000081565b6040516001600160a01b0390911681526020016101dd565b6102707f000000000000000000000000000000000000000000000000000000000000000081565b61018b6102bd36600461203d565b6106bc565b61018b610b2e565b609754610270906001600160a01b031681565b60c9546102ed9063ffffffff1681565b60405163ffffffff90911681526020016101dd565b6033546001600160a01b0316610270565b61018b6103213660046121c9565b610b42565b61018b61033436600461228e565b610b94565b61018b610347366004611ea7565b610cfa565b61018b61035a3660046122fa565b610d4b565b61037261036d36600461234a565b610d5c565b6040516101dd91906123c5565b61023161038d366004611ea7565b610e01565b6101f9610f17565b6102316103a8366004611ea7565b610f26565b61018b6103bb366004611ea7565b610fb5565b61018b6103ce366004611ecb565b61102b565b609760009054906101000a90046001600160a01b03166001600160a01b031663eab66d7a6040518163ffffffff1660e01b8152600401602060405180830381865afa158015610426573d6000803e3d6000fd5b505050506040513d601f19601f8201168201806040525081019061044a91906123d8565b6001600160a01b0316336001600160a01b0316146104835760405162461bcd60e51b815260040161047a906123f5565b60405180910390fd5b61048c81611187565b50565b60975460405163237dfb4760e11b81523360048201526001600160a01b03909116906346fbf68e90602401602060405180830381865afa1580156104d7573d6000803e3d6000fd5b505050506040513d601f19601f820116820180604052508101906104fb919061243f565b6105175760405162461bcd60e51b815260040161047a90612461565b609854818116146105905760405162461bcd60e51b815260206004820152603860248201527f5061757361626c652e70617573653a20696e76616c696420617474656d70742060448201527f746f20756e70617573652066756e6374696f6e616c6974790000000000000000606482015260840161047a565b609881905560405181815233907fab40a374bc51de372200a8bc981af8c9ecdc08dfdaef0bb6e09f88f3c616ef3d906020015b60405180910390a250565b6105d661127e565b6105e082826112d8565b5050565b60606105ef82611550565b92915050565b60975460405163237dfb4760e11b81523360048201526001600160a01b03909116906346fbf68e90602401602060405180830381865afa15801561063d573d6000803e3d6000fd5b505050506040513d601f19601f82011682018060405250810190610661919061243f565b61067d5760405162461bcd60e51b815260040161047a90612461565b600019609881905560405190815233907fab40a374bc51de372200a8bc981af8c9ecdc08dfdaef0bb6e09f88f3c616ef3d9060200160405180910390a2565b60405163ec7fbb3160e01b81523360048201527f00000000000000000000000000000000000000000000000000000000000000006001600160a01b03169063ec7fbb3190602401602060405180830381865afa158015610720573d6000803e3d6000fd5b505050506040513d601f19601f82011682018060405250810190610744919061243f565b15156001146107955760405162461bcd60e51b815260206004820152601b60248201527f4f70657261746f72206d757374206265207468652063616c6c65720000000000604482015260640161047a565b61079e33610e01565b6108075760405162461bcd60e51b815260206004820152603460248201527f4f70657261746f7220646f6573206e6f742068617665206d61746368207468656044820152732077656967687420726571756972656d656e747360601b606482015260840161047a565b63ffffffff8316600090815260ca602090815260409182902054915161082f918791016124d2565b60405160208183030381529060405280519060200120146108b85760405162461bcd60e51b815260206004820152603d60248201527f737570706c696564207461736b20646f6573206e6f74206d617463682074686560448201527f206f6e65207265636f7264656420696e2074686520636f6e7472616374000000606482015260840161047a565b33600090815260cb6020908152604080832063ffffffff87168452909152902080546108e390612591565b1590506109455760405162461bcd60e51b815260206004820152602a60248201527f4f70657261746f722068617320616c726561647920726573706f6e64656420746044820152696f20746865207461736b60b01b606482015260840161047a565b600061095185806125cb565b604051602001610962929190612611565b60405160208183030381529060405280519060200120905060006109d3826040517f19457468657265756d205369676e6564204d6573736167653a0a3332000000006020820152603c8101829052600090605c01604051602081830303815290604052805190602001209050919050565b90506000610a1985858080601f016020809104026020016040519081016040528093929190818152602001838380828437600092019190915250869392505061187c9050565b90506001600160a01b0381163314610a735760405162461bcd60e51b815260206004820152601e60248201527f4d657373616765207369676e6572206973206e6f74206f70657261746f720000604482015260640161047a565b33600090815260cb6020908152604080832063ffffffff8a1684529091529020610a9e85878361266d565b5063ffffffff86167f6dd5d7a705af2621317d30e1fb4d754b0cf29aab980d6c92f72d2628b4c65289610ad189806125cb565b610ae160408c0160208d0161272c565b610af160608d0160408e01611f72565b8c606001358d6080016020810190610b099190611f72565b33604051610b1d9796959493929190612747565b60405180910390a250505050505050565b610b3661127e565b610b4060006118a0565b565b336001600160a01b037f00000000000000000000000000000000000000000000000000000000000000001614610b8a5760405162461bcd60e51b815260040161047a906127a0565b6105e082826118f2565b6040805160a08101825260608082526000602083018190529282018390528101829052608081019190915285858080601f0160208091040260200160405190810160405280939291908181526020018383808284376000920191909152505050908252506001600160401b03841660208083019190915263ffffffff8085166040808501919091526060840185905243909116608084015251610c399183910161286e565b60408051601f19818403018152828252805160209182012060c9805463ffffffff908116600090815260ca85528590209290925554855192860151938601516060870151608088015192909316957f761a65338e5f80efdf2e4c90b1ac51792c834d4facfedfb520628ffc8690a53795610cbc9589959094919392909190612881565b60405180910390a260c954610cd89063ffffffff1660016128f7565b60c9805463ffffffff191663ffffffff92909216919091179055505050505050565b336001600160a01b037f00000000000000000000000000000000000000000000000000000000000000001614610d425760405162461bcd60e51b815260040161047a906127a0565b61048c81611940565b610d5361127e565b61048c816119bf565b60cb60209081526000928352604080842090915290825290208054610d8090612591565b80601f0160208091040260200160405190810160405280929190818152602001828054610dac90612591565b8015610df95780601f10610dce57610100808354040283529160200191610df9565b820191906000526020600020905b815481529060010190602001808311610ddc57829003601f168201915b505050505081565b60007f00000000000000000000000000000000000000000000000000000000000000006001600160a01b03166340bf2fb76040518163ffffffff1660e01b8152600401602060405180830381865afa158015610e61573d6000803e3d6000fd5b505050506040513d601f19601f82011682018060405250810190610e859190612913565b6040516398ec1ac960e01b81526001600160a01b0384811660048301527f000000000000000000000000000000000000000000000000000000000000000016906398ec1ac990602401602060405180830381865afa158015610eeb573d6000803e3d6000fd5b505050506040513d601f19601f82011682018060405250810190610f0f9190612913565b101592915050565b6060610f21611a0b565b905090565b60405163ec7fbb3160e01b81526001600160a01b0382811660048301526000917f00000000000000000000000000000000000000000000000000000000000000009091169063ec7fbb3190602401602060405180830381865afa158015610f91573d6000803e3d6000fd5b505050506040513d601f19601f820116820180604052508101906105ef919061243f565b610fbd61127e565b6001600160a01b0381166110225760405162461bcd60e51b815260206004820152602660248201527f4f776e61626c653a206e6577206f776e657220697320746865207a65726f206160448201526564647265737360d01b606482015260840161047a565b61048c816118a0565b609760009054906101000a90046001600160a01b03166001600160a01b031663eab66d7a6040518163ffffffff1660e01b8152600401602060405180830381865afa15801561107e573d6000803e3d6000fd5b505050506040513d601f19601f820116820180604052508101906110a291906123d8565b6001600160a01b0316336001600160a01b0316146110d25760405162461bcd60e51b815260040161047a906123f5565b6098541981196098541916146111505760405162461bcd60e51b815260206004820152603860248201527f5061757361626c652e756e70617573653a20696e76616c696420617474656d7060448201527f7420746f2070617573652066756e6374696f6e616c6974790000000000000000606482015260840161047a565b609881905560405181815233907f3582d1828e26bf56bd801502bc021ac0bc8afb57c826e4986b45593c8fad389c906020016105c3565b6001600160a01b0381166112155760405162461bcd60e51b815260206004820152604960248201527f5061757361626c652e5f73657450617573657252656769737472793a206e657760448201527f50617573657252656769737472792063616e6e6f7420626520746865207a65726064820152686f206164647265737360b81b608482015260a40161047a565b609754604080516001600160a01b03928316815291831660208301527f6e9fcd539896fca60e8b0f01dd580233e48a6b0f7df013b89ba7f565869acdb6910160405180910390a1609780546001600160a01b0319166001600160a01b0392909216919091179055565b6033546001600160a01b03163314610b405760405162461bcd60e51b815260206004820181905260248201527f4f776e61626c653a2063616c6c6572206973206e6f7420746865206f776e6572604482015260640161047a565b60005b818110156114cb578282828181106112f5576112f561292c565b90506020028101906113079190612942565b611318906040810190602001611ea7565b6001600160a01b03166323b872dd333086868681811061133a5761133a61292c565b905060200281019061134c9190612942565b604080516001600160e01b031960e087901b1681526001600160a01b039485166004820152939092166024840152013560448201526064016020604051808303816000875af11580156113a3573d6000803e3d6000fd5b505050506040513d601f19601f820116820180604052508101906113c7919061243f565b508282828181106113da576113da61292c565b90506020028101906113ec9190612942565b6113fd906040810190602001611ea7565b6001600160a01b031663095ea7b37f000000000000000000000000000000000000000000000000000000000000000085858581811061143e5761143e61292c565b90506020028101906114509190612942565b604080516001600160e01b031960e086901b1681526001600160a01b039093166004840152013560248201526044016020604051808303816000875af115801561149e573d6000803e3d6000fd5b505050506040513d601f19601f820116820180604052508101906114c2919061243f565b506001016112db565b50604051630da22a8b60e11b81526001600160a01b037f00000000000000000000000000000000000000000000000000000000000000001690631b4455169061151a90859085906004016129f2565b600060405180830381600087803b15801561153457600080fd5b505af1158015611548573d6000803e3d6000fd5b505050505050565b606060007f00000000000000000000000000000000000000000000000000000000000000006001600160a01b0316631703a0186040518163ffffffff1660e01b8152600401600060405180830381865afa1580156115b2573d6000803e3d6000fd5b505050506040513d6000823e601f3d908101601f191682016040526115da9190810190612b2f565b8051519091506000816001600160401b038111156115fa576115fa6120bc565b604051908082528060200260200182016040528015611623578160200160208202803683370190505b50905060005b828110156116835783518051829081106116455761164561292c565b6020026020010151600001518282815181106116635761166361292c565b6001600160a01b0390921660209283029190910190910152600101611629565b50604051639004134760e01b81526000906001600160a01b037f000000000000000000000000000000000000000000000000000000000000000016906390041347906116d59089908690600401612c3c565b600060405180830381865afa1580156116f2573d6000803e3d6000fd5b505050506040513d6000823e601f3d908101601f1916820160405261171a9190810190612c9b565b90506000836001600160401b03811115611736576117366120bc565b60405190808252806020026020018201604052801561175f578160200160208202803683370190505b5090506000805b858110156117a65760008482815181106117825761178261292c565b6020026020010151111561179e578161179a81612d30565b9250505b600101611766565b506000816001600160401b038111156117c1576117c16120bc565b6040519080825280602002602001820160405280156117ea578160200160208202803683370190505b50905060005b8681101561186f57600085828151811061180c5761180c61292c565b602002602001015111156118675783818151811061182c5761182c61292c565b60200260200101518282815181106118465761184661292c565b60200260200101906001600160a01b031690816001600160a01b0316815250505b6001016117f0565b5098975050505050505050565b600080600061188b8585611b48565b9150915061189881611bb6565b509392505050565b603380546001600160a01b038381166001600160a01b0319831681179093556040519116919082907f8be0079c531659141344cd1fd0a4f28419497f9722a3daafe3b4186f6b6457e090600090a35050565b604051639926ee7d60e01b81526001600160a01b037f00000000000000000000000000000000000000000000000000000000000000001690639926ee7d9061151a9085908590600401612d49565b6040516351b27a6d60e11b81526001600160a01b0382811660048301527f0000000000000000000000000000000000000000000000000000000000000000169063a364f4da906024015b600060405180830381600087803b1580156119a457600080fd5b505af11580156119b8573d6000803e3d6000fd5b5050505050565b60405163a98fb35560e01b81526001600160a01b037f0000000000000000000000000000000000000000000000000000000000000000169063a98fb3559061198a9084906004016123c5565b606060007f00000000000000000000000000000000000000000000000000000000000000006001600160a01b0316631703a0186040518163ffffffff1660e01b8152600401600060405180830381865afa158015611a6d573d6000803e3d6000fd5b505050506040513d6000823e601f3d908101601f19168201604052611a959190810190612b2f565b905060008160000151516001600160401b03811115611ab657611ab66120bc565b604051908082528060200260200182016040528015611adf578160200160208202803683370190505b50905060005b825151811015611b41578251805182908110611b0357611b0361292c565b602002602001015160000151828281518110611b2157611b2161292c565b6001600160a01b0390921660209283029190910190910152600101611ae5565b5092915050565b6000808251604103611b7e5760208301516040840151606085015160001a611b7287828585611d6c565b94509450505050611baf565b8251604003611ba75760208301516040840151611b9c868383611e59565b935093505050611baf565b506000905060025b9250929050565b6000816004811115611bca57611bca612d94565b03611bd25750565b6001816004811115611be657611be6612d94565b03611c335760405162461bcd60e51b815260206004820152601860248201527f45434453413a20696e76616c6964207369676e61747572650000000000000000604482015260640161047a565b6002816004811115611c4757611c47612d94565b03611c945760405162461bcd60e51b815260206004820152601f60248201527f45434453413a20696e76616c6964207369676e6174757265206c656e67746800604482015260640161047a565b6003816004811115611ca857611ca8612d94565b03611d005760405162461bcd60e51b815260206004820152602260248201527f45434453413a20696e76616c6964207369676e6174757265202773272076616c604482015261756560f01b606482015260840161047a565b6004816004811115611d1457611d14612d94565b0361048c5760405162461bcd60e51b815260206004820152602260248201527f45434453413a20696e76616c6964207369676e6174757265202776272076616c604482015261756560f01b606482015260840161047a565b6000807f7fffffffffffffffffffffffffffffff5d576e7357a4501ddfe92f46681b20a0831115611da35750600090506003611e50565b8460ff16601b14158015611dbb57508460ff16601c14155b15611dcc5750600090506004611e50565b6040805160008082526020820180845289905260ff881692820192909252606081018690526080810185905260019060a0016020604051602081039080840390855afa158015611e20573d6000803e3d6000fd5b5050604051601f1901519150506001600160a01b038116611e4957600060019250925050611e50565b9150600090505b94509492505050565b6000806001600160ff1b03831681611e7660ff86901c601b612daa565b9050611e8487828885611d6c565b935093505050935093915050565b6001600160a01b038116811461048c57600080fd5b600060208284031215611eb957600080fd5b8135611ec481611e92565b9392505050565b600060208284031215611edd57600080fd5b5035919050565b60008060208385031215611ef757600080fd5b82356001600160401b03811115611f0d57600080fd5b8301601f81018513611f1e57600080fd5b80356001600160401b03811115611f3457600080fd5b8560208260051b8401011115611f4957600080fd5b6020919091019590945092505050565b803563ffffffff81168114611f6d57600080fd5b919050565b600060208284031215611f8457600080fd5b611ec482611f59565b602080825282518282018190526000918401906040840190835b81811015611fce5783516001600160a01b0316835260209384019390920191600101611fa7565b509095945050505050565b600060208284031215611feb57600080fd5b813560ff81168114611ec457600080fd5b60008083601f84011261200e57600080fd5b5081356001600160401b0381111561202557600080fd5b602083019150836020828501011115611baf57600080fd5b6000806000806060858703121561205357600080fd5b84356001600160401b0381111561206957600080fd5b850160a0818803121561207b57600080fd5b935061208960208601611f59565b925060408501356001600160401b038111156120a457600080fd5b6120b087828801611ffc565b95989497509550505050565b634e487b7160e01b600052604160045260246000fd5b604051606081016001600160401b03811182821017156120f4576120f46120bc565b60405290565b604051602081016001600160401b03811182821017156120f4576120f46120bc565b604080519081016001600160401b03811182821017156120f4576120f46120bc565b604051601f8201601f191681016001600160401b0381118282101715612166576121666120bc565b604052919050565b6000806001600160401b03841115612188576121886120bc565b50601f8301601f191660200161219d8161213e565b9150508281528383830111156121b257600080fd5b828260208301376000602084830101529392505050565b600080604083850312156121dc57600080fd5b82356121e781611e92565b915060208301356001600160401b0381111561220257600080fd5b83016060818603121561221457600080fd5b61221c6120d2565b81356001600160401b0381111561223257600080fd5b8201601f8101871361224357600080fd5b6122528782356020840161216e565b8252506020828101359082015260409182013591810191909152919491935090915050565b80356001600160401b0381168114611f6d57600080fd5b6000806000806000608086880312156122a657600080fd5b85356001600160401b038111156122bc57600080fd5b6122c888828901611ffc565b90965094506122db905060208701612277565b92506122e960408701611f59565b949793965091946060013592915050565b60006020828403121561230c57600080fd5b81356001600160401b0381111561232257600080fd5b8201601f8101841361233357600080fd5b6123428482356020840161216e565b949350505050565b6000806040838503121561235d57600080fd5b823561236881611e92565b915061237660208401611f59565b90509250929050565b6000815180845260005b818110156123a557602081850181015186830182015201612389565b506000602082860101526020601f19601f83011685010191505092915050565b602081526000611ec4602083018461237f565b6000602082840312156123ea57600080fd5b8151611ec481611e92565b6020808252602a908201527f6d73672e73656e646572206973206e6f74207065726d697373696f6e6564206160408201526939903ab73830bab9b2b960b11b606082015260800190565b60006020828403121561245157600080fd5b81518015158114611ec457600080fd5b60208082526028908201527f6d73672e73656e646572206973206e6f74207065726d697373696f6e6564206160408201526739903830bab9b2b960c11b606082015260800190565b81835281816020850137506000828201602090810191909152601f909101601f19169091010190565b6020815260008235601e198436030181126124ec57600080fd5b83016020810190356001600160401b0381111561250857600080fd5b80360382131561251757600080fd5b60a0602085015261252c60c0850182846124a9565b91505061253b60208501612277565b6001600160401b03811660408501525061255760408501611f59565b63ffffffff8116606085015250606084013560808481019190915261257d908501611f59565b63ffffffff811660a0850152509392505050565b600181811c908216806125a557607f821691505b6020821081036125c557634e487b7160e01b600052602260045260246000fd5b50919050565b6000808335601e198436030181126125e257600080fd5b8301803591506001600160401b038211156125fc57600080fd5b602001915036819003821315611baf57600080fd5b8183823760009101908152919050565b601f82111561266857806000526020600020601f840160051c810160208510156126485750805b601f840160051c820191505b818110156119b85760008155600101612654565b505050565b6001600160401b03831115612684576126846120bc565b612698836126928354612591565b83612621565b6000601f8411600181146126cc57600085156126b45750838201355b600019600387901b1c1916600186901b1783556119b8565b600083815260209020601f19861690835b828110156126fd57868501358255602094850194600190920191016126dd565b508682101561271a5760001960f88860031b161c19848701351681555b505060018560011b0183555050505050565b60006020828403121561273e57600080fd5b611ec482612277565b60c08152600061275b60c08301898b6124a9565b6001600160401b039790971660208301525063ffffffff94851660408201526060810193909352921660808201526001600160a01b0390911660a09091015292915050565b6020808252604a908201527f4543445341536572766963654d616e61676572426173652e6f6e6c795374616b60408201527f6552656769737472793a2063616c6c6572206973206e6f7420746865207374616060820152696b65526567697374727960b01b608082015260a00190565b6000815160a0845261282560a085018261237f565b90506001600160401b03602084015116602085015263ffffffff60408401511660408501526060830151606085015263ffffffff60808401511660808501528091505092915050565b602081526000611ec46020830184612810565b60c08152600061289460c0830189612810565b82810360208401526128a6818961237f565b9150506001600160401b038616604083015263ffffffff8516606083015283608083015263ffffffff831660a0830152979650505050505050565b634e487b7160e01b600052601160045260246000fd5b63ffffffff81811683821601908111156105ef576105ef6128e1565b60006020828403121561292557600080fd5b5051919050565b634e487b7160e01b600052603260045260246000fd5b60008235609e1983360301811261295857600080fd5b9190910192915050565b8035611f6d81611e92565b6bffffffffffffffffffffffff8116811461048c57600080fd5b81835260208301925060008160005b848110156129e85781356129a981611e92565b6001600160a01b0316865260208201356129c28161296d565b6bffffffffffffffffffffffff1660208701526040958601959190910190600101612996565b5093949350505050565b6020808252810182905260006040600584901b830181019083018583609e1936839003015b87821015612aff57868503603f190184528235818112612a3657600080fd5b8901803536829003601e19018112612a4d57600080fd5b81016020810190356001600160401b03811115612a6957600080fd5b8060061b3603821315612a7b57600080fd5b60a08852612a8d60a089018284612987565b915050612a9c60208301612962565b6001600160a01b0316602088015260408281013590880152612ac060608301611f59565b63ffffffff166060880152612ad760808301611f59565b63ffffffff811660808901529150955050602093840193929092019160019190910190612a17565b5092979650505050505050565b60006001600160401b03821115612b2557612b256120bc565b5060051b60200190565b600060208284031215612b4157600080fd5b81516001600160401b03811115612b5757600080fd5b820160208185031215612b6957600080fd5b612b716120fa565b81516001600160401b03811115612b8757600080fd5b80830192505084601f830112612b9c57600080fd5b8151612baf612baa82612b0c565b61213e565b8082825260208201915060208360061b860101925087831115612bd157600080fd5b6020850194505b82851015612c2f5760408589031215612bf057600080fd5b612bf861211c565b8551612c0381611e92565b81526020860151612c138161296d565b8060208301525080835250602082019150604085019450612bd8565b8352509095945050505050565b6001600160a01b0383168152604060208083018290528351918301829052600091908401906060840190835b81811015612c8f5783516001600160a01b0316835260209384019390920191600101612c68565b50909695505050505050565b600060208284031215612cad57600080fd5b81516001600160401b03811115612cc357600080fd5b8201601f81018413612cd457600080fd5b8051612ce2612baa82612b0c565b8082825260208201915060208360051b850101925086831115612d0457600080fd5b6020840193505b82841015612d26578351825260209384019390910190612d0b565b9695505050505050565b600060018201612d4257612d426128e1565b5060010190565b60018060a01b0383168152604060208201526000825160606040840152612d7360a084018261237f565b90506020840151606084015260408401516080840152809150509392505050565b634e487b7160e01b600052602160045260246000fd5b808201808211156105ef576105ef6128e156fea2646970667358221220218c71e2ecb275d1fac73937be7f88f71518bab5e64257603d76c61b8d8749ff64736f6c634300081a0033",
        "linkReferences": {}
    },
    "methodIdentifiers": {
        "allTaskHashes(uint32)": "2d89f6fc",
        "allTaskResponses(address,uint32)": "c20bab7f",
        "avsDirectory()": "6b3aa72e",
        "createNewTask(bytes,uint64,uint32,bytes32)": "9fc5b9ff",
        "deregisterOperatorFromAVS(address)": "a364f4da",
        "getOperatorRestakedStrategies(address)": "33cfb7b7",
        "getRestakeableStrategies()": "e481af9d",
        "latestTaskNum()": "8b00ce7c",
        "operatorHasMinimumWeight(address)": "d5dba76d",
        "operatorRegistered(address)": "ec7fbb31",
        "owner()": "8da5cb5b",
        "pause(uint256)": "136439dd",
        "pauseAll()": "595c6a67",
        "paused()": "5c975abb",
        "paused(uint8)": "5ac86ab7",
        "pauserRegistry()": "886f1195",
        "payForRange(((address,uint96)[],address,uint256,uint32,uint32)[])": "1b445516",
        "registerOperatorToAVS(address,(bytes,bytes32,uint256))": "9926ee7d",
        "renounceOwnership()": "715018a6",
        "respondToTask((bytes,uint64,uint32,bytes32,uint32),uint32,bytes)": "6ea04105",
        "setPauserRegistry(address)": "10d67a2f",
        "stakeRegistry()": "68304835",
        "transferOwnership(address)": "f2fde38b",
        "unpause(uint256)": "fabc1cbc",
        "updateAVSMetadataURI(string)": "a98fb355"
    },
    "id": 98
}