{
    "abi": [
        {
            "type": "constructor",
            "inputs": [
                {
                    "name": "_strategyManager",
                    "type": "address",
                    "internalType": "contract IStrategyManager"
                },
                {
                    "name": "_slasher",
                    "type": "address",
                    "internalType": "contract ISlasher"
                },
                {
                    "name": "_eigenPodManager",
                    "type": "address",
                    "internalType": "contract IEigenPodManager"
                }
            ],
            "stateMutability": "nonpayable"
        },
        {
            "type": "function",
            "name": "DELEGATION_APPROVAL_TYPEHASH",
            "inputs": [],
            "outputs": [
                {
                    "name": "",
                    "type": "bytes32",
                    "internalType": "bytes32"
                }
            ],
            "stateMutability": "view"
        },
        {
            "type": "function",
            "name": "DOMAIN_TYPEHASH",
            "inputs": [],
            "outputs": [
                {
                    "name": "",
                    "type": "bytes32",
                    "internalType": "bytes32"
                }
            ],
            "stateMutability": "view"
        },
        {
            "type": "function",
            "name": "MAX_STAKER_OPT_OUT_WINDOW_BLOCKS",
            "inputs": [],
            "outputs": [
                {
                    "name": "",
                    "type": "uint256",
                    "internalType": "uint256"
                }
            ],
            "stateMutability": "view"
        },
        {
            "type": "function",
            "name": "MAX_WITHDRAWAL_DELAY_BLOCKS",
            "inputs": [],
            "outputs": [
                {
                    "name": "",
                    "type": "uint256",
                    "internalType": "uint256"
                }
            ],
            "stateMutability": "view"
        },
        {
            "type": "function",
            "name": "STAKER_DELEGATION_TYPEHASH",
            "inputs": [],
            "outputs": [
                {
                    "name": "",
                    "type": "bytes32",
                    "internalType": "bytes32"
                }
            ],
            "stateMutability": "view"
        },
        {
            "type": "function",
            "name": "beaconChainETHStrategy",
            "inputs": [],
            "outputs": [
                {
                    "name": "",
                    "type": "address",
                    "internalType": "contract IStrategy"
                }
            ],
            "stateMutability": "view"
        },
        {
            "type": "function",
            "name": "calculateCurrentStakerDelegationDigestHash",
            "inputs": [
                {
                    "name": "staker",
                    "type": "address",
                    "internalType": "address"
                },
                {
                    "name": "operator",
                    "type": "address",
                    "internalType": "address"
                },
                {
                    "name": "expiry",
                    "type": "uint256",
                    "internalType": "uint256"
                }
            ],
            "outputs": [
                {
                    "name": "",
                    "type": "bytes32",
                    "internalType": "bytes32"
                }
            ],
            "stateMutability": "view"
        },
        {
            "type": "function",
            "name": "calculateDelegationApprovalDigestHash",
            "inputs": [
                {
                    "name": "staker",
                    "type": "address",
                    "internalType": "address"
                },
                {
                    "name": "operator",
                    "type": "address",
                    "internalType": "address"
                },
                {
                    "name": "_delegationApprover",
                    "type": "address",
                    "internalType": "address"
                },
                {
                    "name": "approverSalt",
                    "type": "bytes32",
                    "internalType": "bytes32"
                },
                {
                    "name": "expiry",
                    "type": "uint256",
                    "internalType": "uint256"
                }
            ],
            "outputs": [
                {
                    "name": "",
                    "type": "bytes32",
                    "internalType": "bytes32"
                }
            ],
            "stateMutability": "view"
        },
        {
            "type": "function",
            "name": "calculateStakerDelegationDigestHash",
            "inputs": [
                {
                    "name": "staker",
                    "type": "address",
                    "internalType": "address"
                },
                {
                    "name": "_stakerNonce",
                    "type": "uint256",
                    "internalType": "uint256"
                },
                {
                    "name": "operator",
                    "type": "address",
                    "internalType": "address"
                },
                {
                    "name": "expiry",
                    "type": "uint256",
                    "internalType": "uint256"
                }
            ],
            "outputs": [
                {
                    "name": "",
                    "type": "bytes32",
                    "internalType": "bytes32"
                }
            ],
            "stateMutability": "view"
        },
        {
            "type": "function",
            "name": "calculateWithdrawalRoot",
            "inputs": [
                {
                    "name": "withdrawal",
                    "type": "tuple",
                    "internalType": "struct IDelegationManager.Withdrawal",
                    "components": [
                        {
                            "name": "staker",
                            "type": "address",
                            "internalType": "address"
                        },
                        {
                            "name": "delegatedTo",
                            "type": "address",
                            "internalType": "address"
                        },
                        {
                            "name": "withdrawer",
                            "type": "address",
                            "internalType": "address"
                        },
                        {
                            "name": "nonce",
                            "type": "uint256",
                            "internalType": "uint256"
                        },
                        {
                            "name": "startBlock",
                            "type": "uint32",
                            "internalType": "uint32"
                        },
                        {
                            "name": "strategies",
                            "type": "address[]",
                            "internalType": "contract IStrategy[]"
                        },
                        {
                            "name": "shares",
                            "type": "uint256[]",
                            "internalType": "uint256[]"
                        }
                    ]
                }
            ],
            "outputs": [
                {
                    "name": "",
                    "type": "bytes32",
                    "internalType": "bytes32"
                }
            ],
            "stateMutability": "pure"
        },
        {
            "type": "function",
            "name": "completeQueuedWithdrawal",
            "inputs": [
                {
                    "name": "withdrawal",
                    "type": "tuple",
                    "internalType": "struct IDelegationManager.Withdrawal",
                    "components": [
                        {
                            "name": "staker",
                            "type": "address",
                            "internalType": "address"
                        },
                        {
                            "name": "delegatedTo",
                            "type": "address",
                            "internalType": "address"
                        },
                        {
                            "name": "withdrawer",
                            "type": "address",
                            "internalType": "address"
                        },
                        {
                            "name": "nonce",
                            "type": "uint256",
                            "internalType": "uint256"
                        },
                        {
                            "name": "startBlock",
                            "type": "uint32",
                            "internalType": "uint32"
                        },
                        {
                            "name": "strategies",
                            "type": "address[]",
                            "internalType": "contract IStrategy[]"
                        },
                        {
                            "name": "shares",
                            "type": "uint256[]",
                            "internalType": "uint256[]"
                        }
                    ]
                },
                {
                    "name": "tokens",
                    "type": "address[]",
                    "internalType": "contract IERC20[]"
                },
                {
                    "name": "middlewareTimesIndex",
                    "type": "uint256",
                    "internalType": "uint256"
                },
                {
                    "name": "receiveAsTokens",
                    "type": "bool",
                    "internalType": "bool"
                }
            ],
            "outputs": [],
            "stateMutability": "nonpayable"
        },
        {
            "type": "function",
            "name": "completeQueuedWithdrawals",
            "inputs": [
                {
                    "name": "withdrawals",
                    "type": "tuple[]",
                    "internalType": "struct IDelegationManager.Withdrawal[]",
                    "components": [
                        {
                            "name": "staker",
                            "type": "address",
                            "internalType": "address"
                        },
                        {
                            "name": "delegatedTo",
                            "type": "address",
                            "internalType": "address"
                        },
                        {
                            "name": "withdrawer",
                            "type": "address",
                            "internalType": "address"
                        },
                        {
                            "name": "nonce",
                            "type": "uint256",
                            "internalType": "uint256"
                        },
                        {
                            "name": "startBlock",
                            "type": "uint32",
                            "internalType": "uint32"
                        },
                        {
                            "name": "strategies",
                            "type": "address[]",
                            "internalType": "contract IStrategy[]"
                        },
                        {
                            "name": "shares",
                            "type": "uint256[]",
                            "internalType": "uint256[]"
                        }
                    ]
                },
                {
                    "name": "tokens",
                    "type": "address[][]",
                    "internalType": "contract IERC20[][]"
                },
                {
                    "name": "middlewareTimesIndexes",
                    "type": "uint256[]",
                    "internalType": "uint256[]"
                },
                {
                    "name": "receiveAsTokens",
                    "type": "bool[]",
                    "internalType": "bool[]"
                }
            ],
            "outputs": [],
            "stateMutability": "nonpayable"
        },
        {
            "type": "function",
            "name": "cumulativeWithdrawalsQueued",
            "inputs": [
                {
                    "name": "",
                    "type": "address",
                    "internalType": "address"
                }
            ],
            "outputs": [
                {
                    "name": "",
                    "type": "uint256",
                    "internalType": "uint256"
                }
            ],
            "stateMutability": "view"
        },
        {
            "type": "function",
            "name": "decreaseDelegatedShares",
            "inputs": [
                {
                    "name": "staker",
                    "type": "address",
                    "internalType": "address"
                },
                {
                    "name": "strategy",
                    "type": "address",
                    "internalType": "contract IStrategy"
                },
                {
                    "name": "shares",
                    "type": "uint256",
                    "internalType": "uint256"
                }
            ],
            "outputs": [],
            "stateMutability": "nonpayable"
        },
        {
            "type": "function",
            "name": "delegateTo",
            "inputs": [
                {
                    "name": "operator",
                    "type": "address",
                    "internalType": "address"
                },
                {
                    "name": "approverSignatureAndExpiry",
                    "type": "tuple",
                    "internalType": "struct ISignatureUtils.SignatureWithExpiry",
                    "components": [
                        {
                            "name": "signature",
                            "type": "bytes",
                            "internalType": "bytes"
                        },
                        {
                            "name": "expiry",
                            "type": "uint256",
                            "internalType": "uint256"
                        }
                    ]
                },
                {
                    "name": "approverSalt",
                    "type": "bytes32",
                    "internalType": "bytes32"
                }
            ],
            "outputs": [],
            "stateMutability": "nonpayable"
        },
        {
            "type": "function",
            "name": "delegateToBySignature",
            "inputs": [
                {
                    "name": "staker",
                    "type": "address",
                    "internalType": "address"
                },
                {
                    "name": "operator",
                    "type": "address",
                    "internalType": "address"
                },
                {
                    "name": "stakerSignatureAndExpiry",
                    "type": "tuple",
                    "internalType": "struct ISignatureUtils.SignatureWithExpiry",
                    "components": [
                        {
                            "name": "signature",
                            "type": "bytes",
                            "internalType": "bytes"
                        },
                        {
                            "name": "expiry",
                            "type": "uint256",
                            "internalType": "uint256"
                        }
                    ]
                },
                {
                    "name": "approverSignatureAndExpiry",
                    "type": "tuple",
                    "internalType": "struct ISignatureUtils.SignatureWithExpiry",
                    "components": [
                        {
                            "name": "signature",
                            "type": "bytes",
                            "internalType": "bytes"
                        },
                        {
                            "name": "expiry",
                            "type": "uint256",
                            "internalType": "uint256"
                        }
                    ]
                },
                {
                    "name": "approverSalt",
                    "type": "bytes32",
                    "internalType": "bytes32"
                }
            ],
            "outputs": [],
            "stateMutability": "nonpayable"
        },
        {
            "type": "function",
            "name": "delegatedTo",
            "inputs": [
                {
                    "name": "",
                    "type": "address",
                    "internalType": "address"
                }
            ],
            "outputs": [
                {
                    "name": "",
                    "type": "address",
                    "internalType": "address"
                }
            ],
            "stateMutability": "view"
        },
        {
            "type": "function",
            "name": "delegationApprover",
            "inputs": [
                {
                    "name": "operator",
                    "type": "address",
                    "internalType": "address"
                }
            ],
            "outputs": [
                {
                    "name": "",
                    "type": "address",
                    "internalType": "address"
                }
            ],
            "stateMutability": "view"
        },
        {
            "type": "function",
            "name": "delegationApproverSaltIsSpent",
            "inputs": [
                {
                    "name": "",
                    "type": "address",
                    "internalType": "address"
                },
                {
                    "name": "",
                    "type": "bytes32",
                    "internalType": "bytes32"
                }
            ],
            "outputs": [
                {
                    "name": "",
                    "type": "bool",
                    "internalType": "bool"
                }
            ],
            "stateMutability": "view"
        },
        {
            "type": "function",
            "name": "domainSeparator",
            "inputs": [],
            "outputs": [
                {
                    "name": "",
                    "type": "bytes32",
                    "internalType": "bytes32"
                }
            ],
            "stateMutability": "view"
        },
        {
            "type": "function",
            "name": "earningsReceiver",
            "inputs": [
                {
                    "name": "operator",
                    "type": "address",
                    "internalType": "address"
                }
            ],
            "outputs": [
                {
                    "name": "",
                    "type": "address",
                    "internalType": "address"
                }
            ],
            "stateMutability": "view"
        },
        {
            "type": "function",
            "name": "eigenPodManager",
            "inputs": [],
            "outputs": [
                {
                    "name": "",
                    "type": "address",
                    "internalType": "contract IEigenPodManager"
                }
            ],
            "stateMutability": "view"
        },
        {
            "type": "function",
            "name": "getDelegatableShares",
            "inputs": [
                {
                    "name": "staker",
                    "type": "address",
                    "internalType": "address"
                }
            ],
            "outputs": [
                {
                    "name": "",
                    "type": "address[]",
                    "internalType": "contract IStrategy[]"
                },
                {
                    "name": "",
                    "type": "uint256[]",
                    "internalType": "uint256[]"
                }
            ],
            "stateMutability": "view"
        },
        {
            "type": "function",
            "name": "getOperatorShares",
            "inputs": [
                {
                    "name": "operator",
                    "type": "address",
                    "internalType": "address"
                },
                {
                    "name": "strategies",
                    "type": "address[]",
                    "internalType": "contract IStrategy[]"
                }
            ],
            "outputs": [
                {
                    "name": "",
                    "type": "uint256[]",
                    "internalType": "uint256[]"
                }
            ],
            "stateMutability": "view"
        },
        {
            "type": "function",
            "name": "getWithdrawalDelay",
            "inputs": [
                {
                    "name": "strategies",
                    "type": "address[]",
                    "internalType": "contract IStrategy[]"
                }
            ],
            "outputs": [
                {
                    "name": "",
                    "type": "uint256",
                    "internalType": "uint256"
                }
            ],
            "stateMutability": "view"
        },
        {
            "type": "function",
            "name": "increaseDelegatedShares",
            "inputs": [
                {
                    "name": "staker",
                    "type": "address",
                    "internalType": "address"
                },
                {
                    "name": "strategy",
                    "type": "address",
                    "internalType": "contract IStrategy"
                },
                {
                    "name": "shares",
                    "type": "uint256",
                    "internalType": "uint256"
                }
            ],
            "outputs": [],
            "stateMutability": "nonpayable"
        },
        {
            "type": "function",
            "name": "initialize",
            "inputs": [
                {
                    "name": "initialOwner",
                    "type": "address",
                    "internalType": "address"
                },
                {
                    "name": "_pauserRegistry",
                    "type": "address",
                    "internalType": "contract IPauserRegistry"
                },
                {
                    "name": "initialPausedStatus",
                    "type": "uint256",
                    "internalType": "uint256"
                },
                {
                    "name": "_minWithdrawalDelayBlocks",
                    "type": "uint256",
                    "internalType": "uint256"
                },
                {
                    "name": "_strategies",
                    "type": "address[]",
                    "internalType": "contract IStrategy[]"
                },
                {
                    "name": "_withdrawalDelayBlocks",
                    "type": "uint256[]",
                    "internalType": "uint256[]"
                }
            ],
            "outputs": [],
            "stateMutability": "nonpayable"
        },
        {
            "type": "function",
            "name": "isDelegated",
            "inputs": [
                {
                    "name": "staker",
                    "type": "address",
                    "internalType": "address"
                }
            ],
            "outputs": [
                {
                    "name": "",
                    "type": "bool",
                    "internalType": "bool"
                }
            ],
            "stateMutability": "view"
        },
        {
            "type": "function",
            "name": "isOperator",
            "inputs": [
                {
                    "name": "operator",
                    "type": "address",
                    "internalType": "address"
                }
            ],
            "outputs": [
                {
                    "name": "",
                    "type": "bool",
                    "internalType": "bool"
                }
            ],
            "stateMutability": "view"
        },
        {
            "type": "function",
            "name": "migrateQueuedWithdrawals",
            "inputs": [
                {
                    "name": "withdrawalsToMigrate",
                    "type": "tuple[]",
                    "internalType": "struct IStrategyManager.DeprecatedStruct_QueuedWithdrawal[]",
                    "components": [
                        {
                            "name": "strategies",
                            "type": "address[]",
                            "internalType": "contract IStrategy[]"
                        },
                        {
                            "name": "shares",
                            "type": "uint256[]",
                            "internalType": "uint256[]"
                        },
                        {
                            "name": "staker",
                            "type": "address",
                            "internalType": "address"
                        },
                        {
                            "name": "withdrawerAndNonce",
                            "type": "tuple",
                            "internalType": "struct IStrategyManager.DeprecatedStruct_WithdrawerAndNonce",
                            "components": [
                                {
                                    "name": "withdrawer",
                                    "type": "address",
                                    "internalType": "address"
                                },
                                {
                                    "name": "nonce",
                                    "type": "uint96",
                                    "internalType": "uint96"
                                }
                            ]
                        },
                        {
                            "name": "withdrawalStartBlock",
                            "type": "uint32",
                            "internalType": "uint32"
                        },
                        {
                            "name": "delegatedAddress",
                            "type": "address",
                            "internalType": "address"
                        }
                    ]
                }
            ],
            "outputs": [],
            "stateMutability": "nonpayable"
        },
        {
            "type": "function",
            "name": "minWithdrawalDelayBlocks",
            "inputs": [],
            "outputs": [
                {
                    "name": "",
                    "type": "uint256",
                    "internalType": "uint256"
                }
            ],
            "stateMutability": "view"
        },
        {
            "type": "function",
            "name": "modifyOperatorDetails",
            "inputs": [
                {
                    "name": "newOperatorDetails",
                    "type": "tuple",
                    "internalType": "struct IDelegationManager.OperatorDetails",
                    "components": [
                        {
                            "name": "earningsReceiver",
                            "type": "address",
                            "internalType": "address"
                        },
                        {
                            "name": "delegationApprover",
                            "type": "address",
                            "internalType": "address"
                        },
                        {
                            "name": "stakerOptOutWindowBlocks",
                            "type": "uint32",
                            "internalType": "uint32"
                        }
                    ]
                }
            ],
            "outputs": [],
            "stateMutability": "nonpayable"
        },
        {
            "type": "function",
            "name": "operatorDetails",
            "inputs": [
                {
                    "name": "operator",
                    "type": "address",
                    "internalType": "address"
                }
            ],
            "outputs": [
                {
                    "name": "",
                    "type": "tuple",
                    "internalType": "struct IDelegationManager.OperatorDetails",
                    "components": [
                        {
                            "name": "earningsReceiver",
                            "type": "address",
                            "internalType": "address"
                        },
                        {
                            "name": "delegationApprover",
                            "type": "address",
                            "internalType": "address"
                        },
                        {
                            "name": "stakerOptOutWindowBlocks",
                            "type": "uint32",
                            "internalType": "uint32"
                        }
                    ]
                }
            ],
            "stateMutability": "view"
        },
        {
            "type": "function",
            "name": "operatorShares",
            "inputs": [
                {
                    "name": "",
                    "type": "address",
                    "internalType": "address"
                },
                {
                    "name": "",
                    "type": "address",
                    "internalType": "contract IStrategy"
                }
            ],
            "outputs": [
                {
                    "name": "",
                    "type": "uint256",
                    "internalType": "uint256"
                }
            ],
            "stateMutability": "view"
        },
        {
            "type": "function",
            "name": "owner",
            "inputs": [],
            "outputs": [
                {
                    "name": "",
                    "type": "address",
                    "internalType": "address"
                }
            ],
            "stateMutability": "view"
        },
        {
            "type": "function",
            "name": "pause",
            "inputs": [
                {
                    "name": "newPausedStatus",
                    "type": "uint256",
                    "internalType": "uint256"
                }
            ],
            "outputs": [],
            "stateMutability": "nonpayable"
        },
        {
            "type": "function",
            "name": "pauseAll",
            "inputs": [],
            "outputs": [],
            "stateMutability": "nonpayable"
        },
        {
            "type": "function",
            "name": "paused",
            "inputs": [
                {
                    "name": "index",
                    "type": "uint8",
                    "internalType": "uint8"
                }
            ],
            "outputs": [
                {
                    "name": "",
                    "type": "bool",
                    "internalType": "bool"
                }
            ],
            "stateMutability": "view"
        },
        {
            "type": "function",
            "name": "paused",
            "inputs": [],
            "outputs": [
                {
                    "name": "",
                    "type": "uint256",
                    "internalType": "uint256"
                }
            ],
            "stateMutability": "view"
        },
        {
            "type": "function",
            "name": "pauserRegistry",
            "inputs": [],
            "outputs": [
                {
                    "name": "",
                    "type": "address",
                    "internalType": "contract IPauserRegistry"
                }
            ],
            "stateMutability": "view"
        },
        {
            "type": "function",
            "name": "pendingWithdrawals",
            "inputs": [
                {
                    "name": "",
                    "type": "bytes32",
                    "internalType": "bytes32"
                }
            ],
            "outputs": [
                {
                    "name": "",
                    "type": "bool",
                    "internalType": "bool"
                }
            ],
            "stateMutability": "view"
        },
        {
            "type": "function",
            "name": "queueWithdrawals",
            "inputs": [
                {
                    "name": "queuedWithdrawalParams",
                    "type": "tuple[]",
                    "internalType": "struct IDelegationManager.QueuedWithdrawalParams[]",
                    "components": [
                        {
                            "name": "strategies",
                            "type": "address[]",
                            "internalType": "contract IStrategy[]"
                        },
                        {
                            "name": "shares",
                            "type": "uint256[]",
                            "internalType": "uint256[]"
                        },
                        {
                            "name": "withdrawer",
                            "type": "address",
                            "internalType": "address"
                        }
                    ]
                }
            ],
            "outputs": [
                {
                    "name": "",
                    "type": "bytes32[]",
                    "internalType": "bytes32[]"
                }
            ],
            "stateMutability": "nonpayable"
        },
        {
            "type": "function",
            "name": "registerAsOperator",
            "inputs": [
                {
                    "name": "registeringOperatorDetails",
                    "type": "tuple",
                    "internalType": "struct IDelegationManager.OperatorDetails",
                    "components": [
                        {
                            "name": "earningsReceiver",
                            "type": "address",
                            "internalType": "address"
                        },
                        {
                            "name": "delegationApprover",
                            "type": "address",
                            "internalType": "address"
                        },
                        {
                            "name": "stakerOptOutWindowBlocks",
                            "type": "uint32",
                            "internalType": "uint32"
                        }
                    ]
                },
                {
                    "name": "metadataURI",
                    "type": "string",
                    "internalType": "string"
                }
            ],
            "outputs": [],
            "stateMutability": "nonpayable"
        },
        {
            "type": "function",
            "name": "renounceOwnership",
            "inputs": [],
            "outputs": [],
            "stateMutability": "nonpayable"
        },
        {
            "type": "function",
            "name": "setMinWithdrawalDelayBlocks",
            "inputs": [
                {
                    "name": "newMinWithdrawalDelayBlocks",
                    "type": "uint256",
                    "internalType": "uint256"
                }
            ],
            "outputs": [],
            "stateMutability": "nonpayable"
        },
        {
            "type": "function",
            "name": "setPauserRegistry",
            "inputs": [
                {
                    "name": "newPauserRegistry",
                    "type": "address",
                    "internalType": "contract IPauserRegistry"
                }
            ],
            "outputs": [],
            "stateMutability": "nonpayable"
        },
        {
            "type": "function",
            "name": "setStrategyWithdrawalDelayBlocks",
            "inputs": [
                {
                    "name": "strategies",
                    "type": "address[]",
                    "internalType": "contract IStrategy[]"
                },
                {
                    "name": "withdrawalDelayBlocks",
                    "type": "uint256[]",
                    "internalType": "uint256[]"
                }
            ],
            "outputs": [],
            "stateMutability": "nonpayable"
        },
        {
            "type": "function",
            "name": "slasher",
            "inputs": [],
            "outputs": [
                {
                    "name": "",
                    "type": "address",
                    "internalType": "contract ISlasher"
                }
            ],
            "stateMutability": "view"
        },
        {
            "type": "function",
            "name": "stakerNonce",
            "inputs": [
                {
                    "name": "",
                    "type": "address",
                    "internalType": "address"
                }
            ],
            "outputs": [
                {
                    "name": "",
                    "type": "uint256",
                    "internalType": "uint256"
                }
            ],
            "stateMutability": "view"
        },
        {
            "type": "function",
            "name": "stakerOptOutWindowBlocks",
            "inputs": [
                {
                    "name": "operator",
                    "type": "address",
                    "internalType": "address"
                }
            ],
            "outputs": [
                {
                    "name": "",
                    "type": "uint256",
                    "internalType": "uint256"
                }
            ],
            "stateMutability": "view"
        },
        {
            "type": "function",
            "name": "strategyManager",
            "inputs": [],
            "outputs": [
                {
                    "name": "",
                    "type": "address",
                    "internalType": "contract IStrategyManager"
                }
            ],
            "stateMutability": "view"
        },
        {
            "type": "function",
            "name": "strategyWithdrawalDelayBlocks",
            "inputs": [
                {
                    "name": "",
                    "type": "address",
                    "internalType": "contract IStrategy"
                }
            ],
            "outputs": [
                {
                    "name": "",
                    "type": "uint256",
                    "internalType": "uint256"
                }
            ],
            "stateMutability": "view"
        },
        {
            "type": "function",
            "name": "transferOwnership",
            "inputs": [
                {
                    "name": "newOwner",
                    "type": "address",
                    "internalType": "address"
                }
            ],
            "outputs": [],
            "stateMutability": "nonpayable"
        },
        {
            "type": "function",
            "name": "undelegate",
            "inputs": [
                {
                    "name": "staker",
                    "type": "address",
                    "internalType": "address"
                }
            ],
            "outputs": [
                {
                    "name": "withdrawalRoots",
                    "type": "bytes32[]",
                    "internalType": "bytes32[]"
                }
            ],
            "stateMutability": "nonpayable"
        },
        {
            "type": "function",
            "name": "unpause",
            "inputs": [
                {
                    "name": "newPausedStatus",
                    "type": "uint256",
                    "internalType": "uint256"
                }
            ],
            "outputs": [],
            "stateMutability": "nonpayable"
        },
        {
            "type": "function",
            "name": "updateOperatorMetadataURI",
            "inputs": [
                {
                    "name": "metadataURI",
                    "type": "string",
                    "internalType": "string"
                }
            ],
            "outputs": [],
            "stateMutability": "nonpayable"
        },
        {
            "type": "event",
            "name": "Initialized",
            "inputs": [
                {
                    "name": "version",
                    "type": "uint8",
                    "indexed": false,
                    "internalType": "uint8"
                }
            ],
            "anonymous": false
        },
        {
            "type": "event",
            "name": "MinWithdrawalDelayBlocksSet",
            "inputs": [
                {
                    "name": "previousValue",
                    "type": "uint256",
                    "indexed": false,
                    "internalType": "uint256"
                },
                {
                    "name": "newValue",
                    "type": "uint256",
                    "indexed": false,
                    "internalType": "uint256"
                }
            ],
            "anonymous": false
        },
        {
            "type": "event",
            "name": "OperatorDetailsModified",
            "inputs": [
                {
                    "name": "operator",
                    "type": "address",
                    "indexed": true,
                    "internalType": "address"
                },
                {
                    "name": "newOperatorDetails",
                    "type": "tuple",
                    "indexed": false,
                    "internalType": "struct IDelegationManager.OperatorDetails",
                    "components": [
                        {
                            "name": "earningsReceiver",
                            "type": "address",
                            "internalType": "address"
                        },
                        {
                            "name": "delegationApprover",
                            "type": "address",
                            "internalType": "address"
                        },
                        {
                            "name": "stakerOptOutWindowBlocks",
                            "type": "uint32",
                            "internalType": "uint32"
                        }
                    ]
                }
            ],
            "anonymous": false
        },
        {
            "type": "event",
            "name": "OperatorMetadataURIUpdated",
            "inputs": [
                {
                    "name": "operator",
                    "type": "address",
                    "indexed": true,
                    "internalType": "address"
                },
                {
                    "name": "metadataURI",
                    "type": "string",
                    "indexed": false,
                    "internalType": "string"
                }
            ],
            "anonymous": false
        },
        {
            "type": "event",
            "name": "OperatorRegistered",
            "inputs": [
                {
                    "name": "operator",
                    "type": "address",
                    "indexed": true,
                    "internalType": "address"
                },
                {
                    "name": "operatorDetails",
                    "type": "tuple",
                    "indexed": false,
                    "internalType": "struct IDelegationManager.OperatorDetails",
                    "components": [
                        {
                            "name": "earningsReceiver",
                            "type": "address",
                            "internalType": "address"
                        },
                        {
                            "name": "delegationApprover",
                            "type": "address",
                            "internalType": "address"
                        },
                        {
                            "name": "stakerOptOutWindowBlocks",
                            "type": "uint32",
                            "internalType": "uint32"
                        }
                    ]
                }
            ],
            "anonymous": false
        },
        {
            "type": "event",
            "name": "OperatorSharesDecreased",
            "inputs": [
                {
                    "name": "operator",
                    "type": "address",
                    "indexed": true,
                    "internalType": "address"
                },
                {
                    "name": "staker",
                    "type": "address",
                    "indexed": false,
                    "internalType": "address"
                },
                {
                    "name": "strategy",
                    "type": "address",
                    "indexed": false,
                    "internalType": "contract IStrategy"
                },
                {
                    "name": "shares",
                    "type": "uint256",
                    "indexed": false,
                    "internalType": "uint256"
                }
            ],
            "anonymous": false
        },
        {
            "type": "event",
            "name": "OperatorSharesIncreased",
            "inputs": [
                {
                    "name": "operator",
                    "type": "address",
                    "indexed": true,
                    "internalType": "address"
                },
                {
                    "name": "staker",
                    "type": "address",
                    "indexed": false,
                    "internalType": "address"
                },
                {
                    "name": "strategy",
                    "type": "address",
                    "indexed": false,
                    "internalType": "contract IStrategy"
                },
                {
                    "name": "shares",
                    "type": "uint256",
                    "indexed": false,
                    "internalType": "uint256"
                }
            ],
            "anonymous": false
        },
        {
            "type": "event",
            "name": "OwnershipTransferred",
            "inputs": [
                {
                    "name": "previousOwner",
                    "type": "address",
                    "indexed": true,
                    "internalType": "address"
                },
                {
                    "name": "newOwner",
                    "type": "address",
                    "indexed": true,
                    "internalType": "address"
                }
            ],
            "anonymous": false
        },
        {
            "type": "event",
            "name": "Paused",
            "inputs": [
                {
                    "name": "account",
                    "type": "address",
                    "indexed": true,
                    "internalType": "address"
                },
                {
                    "name": "newPausedStatus",
                    "type": "uint256",
                    "indexed": false,
                    "internalType": "uint256"
                }
            ],
            "anonymous": false
        },
        {
            "type": "event",
            "name": "PauserRegistrySet",
            "inputs": [
                {
                    "name": "pauserRegistry",
                    "type": "address",
                    "indexed": false,
                    "internalType": "contract IPauserRegistry"
                },
                {
                    "name": "newPauserRegistry",
                    "type": "address",
                    "indexed": false,
                    "internalType": "contract IPauserRegistry"
                }
            ],
            "anonymous": false
        },
        {
            "type": "event",
            "name": "StakerDelegated",
            "inputs": [
                {
                    "name": "staker",
                    "type": "address",
                    "indexed": true,
                    "internalType": "address"
                },
                {
                    "name": "operator",
                    "type": "address",
                    "indexed": true,
                    "internalType": "address"
                }
            ],
            "anonymous": false
        },
        {
            "type": "event",
            "name": "StakerForceUndelegated",
            "inputs": [
                {
                    "name": "staker",
                    "type": "address",
                    "indexed": true,
                    "internalType": "address"
                },
                {
                    "name": "operator",
                    "type": "address",
                    "indexed": true,
                    "internalType": "address"
                }
            ],
            "anonymous": false
        },
        {
            "type": "event",
            "name": "StakerUndelegated",
            "inputs": [
                {
                    "name": "staker",
                    "type": "address",
                    "indexed": true,
                    "internalType": "address"
                },
                {
                    "name": "operator",
                    "type": "address",
                    "indexed": true,
                    "internalType": "address"
                }
            ],
            "anonymous": false
        },
        {
            "type": "event",
            "name": "StrategyWithdrawalDelayBlocksSet",
            "inputs": [
                {
                    "name": "strategy",
                    "type": "address",
                    "indexed": false,
                    "internalType": "contract IStrategy"
                },
                {
                    "name": "previousValue",
                    "type": "uint256",
                    "indexed": false,
                    "internalType": "uint256"
                },
                {
                    "name": "newValue",
                    "type": "uint256",
                    "indexed": false,
                    "internalType": "uint256"
                }
            ],
            "anonymous": false
        },
        {
            "type": "event",
            "name": "Unpaused",
            "inputs": [
                {
                    "name": "account",
                    "type": "address",
                    "indexed": true,
                    "internalType": "address"
                },
                {
                    "name": "newPausedStatus",
                    "type": "uint256",
                    "indexed": false,
                    "internalType": "uint256"
                }
            ],
            "anonymous": false
        },
        {
            "type": "event",
            "name": "WithdrawalCompleted",
            "inputs": [
                {
                    "name": "withdrawalRoot",
                    "type": "bytes32",
                    "indexed": false,
                    "internalType": "bytes32"
                }
            ],
            "anonymous": false
        },
        {
            "type": "event",
            "name": "WithdrawalMigrated",
            "inputs": [
                {
                    "name": "oldWithdrawalRoot",
                    "type": "bytes32",
                    "indexed": false,
                    "internalType": "bytes32"
                },
                {
                    "name": "newWithdrawalRoot",
                    "type": "bytes32",
                    "indexed": false,
                    "internalType": "bytes32"
                }
            ],
            "anonymous": false
        },
        {
            "type": "event",
            "name": "WithdrawalQueued",
            "inputs": [
                {
                    "name": "withdrawalRoot",
                    "type": "bytes32",
                    "indexed": false,
                    "internalType": "bytes32"
                },
                {
                    "name": "withdrawal",
                    "type": "tuple",
                    "indexed": false,
                    "internalType": "struct IDelegationManager.Withdrawal",
                    "components": [
                        {
                            "name": "staker",
                            "type": "address",
                            "internalType": "address"
                        },
                        {
                            "name": "delegatedTo",
                            "type": "address",
                            "internalType": "address"
                        },
                        {
                            "name": "withdrawer",
                            "type": "address",
                            "internalType": "address"
                        },
                        {
                            "name": "nonce",
                            "type": "uint256",
                            "internalType": "uint256"
                        },
                        {
                            "name": "startBlock",
                            "type": "uint32",
                            "internalType": "uint32"
                        },
                        {
                            "name": "strategies",
                            "type": "address[]",
                            "internalType": "contract IStrategy[]"
                        },
                        {
                            "name": "shares",
                            "type": "uint256[]",
                            "internalType": "uint256[]"
                        }
                    ]
                }
            ],
            "anonymous": false
        }
    ],
    "bytecode": {
        "object": "0x61010060405234801561001157600080fd5b5060405161616238038061616283398101604081905261003091610135565b6001600160a01b0380841660805280821660c052821660a05261005161005d565b50504660e05250610182565b600054610100900460ff16156100c95760405162461bcd60e51b815260206004820152602760248201527f496e697469616c697a61626c653a20636f6e747261637420697320696e697469604482015266616c697a696e6760c81b606482015260840160405180910390fd5b60005460ff908116101561011b576000805460ff191660ff9081179091556040519081527f7f26b83ff96e1f2b6a682f133852f6798a09c465da95921460cefb38474024989060200160405180910390a15b565b6001600160a01b038116811461013257600080fd5b50565b60008060006060848603121561014a57600080fd5b83516101558161011d565b60208501519093506101668161011d565b60408501519092506101778161011d565b809150509250925092565b60805160a05160c05160e051615f4561021d60003960006127480152600081816105e70152818161109d0152818161141901528181611de801528181612aa20152818161410001526145ec015260006107d701526000818161052f0152818161106b015281816113e70152818161170501528181611e7c01528181612b6f01528181612cf20152818161422601526146920152615f456000f3fe608060405234801561001057600080fd5b50600436106103785760003560e01c806360d7faed116101d3578063b7f06ebe11610104578063cf80873e116100a2578063f16172b01161007c578063f16172b01461097d578063f2fde38b14610990578063f698da25146109a3578063fabc1cbc146109ab57600080fd5b8063cf80873e14610936578063da8be86414610957578063eea9064b1461096a57600080fd5b8063c488375a116100de578063c488375a14610853578063c5e480db14610873578063c94b511114610919578063ca661c041461092c57600080fd5b8063b7f06ebe146107f9578063bb45fef21461081c578063c448feb81461084a57600080fd5b8063886f1195116101715780639104c3191161014b5780639104c3191461078457806399be81c81461079f578063a1788484146107b2578063b1344271146107d257600080fd5b8063886f1195146107405780638da5cb5b14610753578063900413471461076457600080fd5b80636d70f7ae116101ad5780636d70f7ae146106e7578063715018a6146106fa578063778e55f3146107025780637f5480711461072d57600080fd5b806360d7faed14610698578063635bbd10146106ab57806365da1264146106be57600080fd5b806329c77d4f116102ad5780634fc40b611161024b5780635ac86ab7116102255780635ac86ab71461062e5780635c975abb146106515780635cfe8d2c146106595780635f966f141461066c57600080fd5b80634fc40b6114610609578063595c6a6714610613578063597b36da1461061b57600080fd5b80633cdeb5e0116102875780633cdeb5e0146105695780633e28391d1461059857806343377382146105bb5780634665bcda146105e257600080fd5b806329c77d4f146104f7578063334043961461051757806339b70e381461052a57600080fd5b8063136439dd1161031a5780631bbce091116102f45780631bbce0911461049757806320606b70146104aa57806322bf40e4146104d157806328a573ae146104e457600080fd5b8063136439dd146104385780631522bf021461044b578063169283651461045e57600080fd5b80630dd8dd02116103565780630dd8dd02146103dd5780630f589e59146103fd57806310d67a2f14610412578063132d49671461042557600080fd5b80630449ca391461037d57806304a4f979146103a35780630b9f487a146103ca575b600080fd5b61039061038b366004614a9b565b6109be565b6040519081526020015b60405180910390f35b6103907f14bde674c9f64b2ad00eaaee4a8bed1fabef35c7507e3c5b9cfc9436909a2dad81565b6103906103d8366004614b01565b610a3d565b6103f06103eb366004614a9b565b610aff565b60405161039a9190614b5c565b61041061040b366004614bed565b610e5d565b005b610410610420366004614c40565b610fad565b610410610433366004614c64565b611060565b610410610446366004614ca5565b611117565b610410610459366004614cbe565b611256565b61039061046c366004614c40565b6001600160a01b0316600090815260996020526040902060010154600160a01b900463ffffffff1690565b6103906104a5366004614c64565b61126a565b6103907f8cad95687ba82c2ce50e74f7b754645e5117c3a5bec8151c0726d5857980a86681565b6104106104df366004614d2d565b611298565b6104106104f2366004614c64565b6113dc565b610390610505366004614c40565b609b6020526000908152604090205481565b610410610525366004614dd8565b61148c565b6105517f000000000000000000000000000000000000000000000000000000000000000081565b6040516001600160a01b03909116815260200161039a565b610551610577366004614c40565b6001600160a01b039081166000908152609960205260409020600101541690565b6105ab6105a6366004614c40565b6115bf565b604051901515815260200161039a565b6103907f39111bc4a4d688e1f685123d7497d4615370152a8ee4a0593e647bd06ad8bb0b81565b6105517f000000000000000000000000000000000000000000000000000000000000000081565b6103906213c68081565b6104106115df565b610390610629366004615111565b6116a6565b6105ab61063c36600461514d565b606654600160ff9092169190911b9081161490565b606654610390565b6104106106673660046151c3565b6116d6565b61055161067a366004614c40565b6001600160a01b039081166000908152609960205260409020541690565b6104106106a6366004615333565b611981565b6104106106b9366004614ca5565b611a1a565b6105516106cc366004614c40565b609a602052600090815260409020546001600160a01b031681565b6105ab6106f5366004614c40565b611a2b565b610410611a4b565b6103906107103660046153c3565b609860209081526000928352604080842090915290825290205481565b61041061073b3660046154a7565b611a5f565b606554610551906001600160a01b031681565b6033546001600160a01b0316610551565b61077761077236600461553b565b611b64565b60405161039a91906155c6565b61055173beac0eeeeeeeeeeeeeeeeeeeeeeeeeeeeeebeac081565b6104106107ad3660046155d9565b611c36565b6103906107c0366004614c40565b609f6020526000908152604090205481565b6105517f000000000000000000000000000000000000000000000000000000000000000081565b6105ab610807366004614ca5565b609e6020526000908152604090205460ff1681565b6105ab61082a36600461560e565b609c60209081526000928352604080842090915290825290205460ff1681565b610390609d5481565b610390610861366004614c40565b60a16020526000908152604090205481565b6108e3610881366004614c40565b6040805160608082018352600080835260208084018290529284018190526001600160a01b03948516815260998352839020835191820184528054851682526001015493841691810191909152600160a01b90920463ffffffff169082015290565b6040805182516001600160a01b039081168252602080850151909116908201529181015163ffffffff169082015260600161039a565b61039061092736600461563a565b611d08565b61039062034bc081565b610949610944366004614c40565b611dc1565b60405161039a9291906156bd565b6103f0610965366004614c40565b612178565b6104106109783660046156e2565b612631565b61041061098b36600461573b565b61263d565b61041061099e366004614c40565b6126ce565b610390612744565b6104106109b9366004614ca5565b612781565b609d54600090815b83811015610a3357600060a160008787858181106109e6576109e6615757565b90506020020160208101906109fb9190614c40565b6001600160a01b03166001600160a01b0316815260200190815260200160002054905082811115610a2a578092505b506001016109c6565b5090505b92915050565b604080517f14bde674c9f64b2ad00eaaee4a8bed1fabef35c7507e3c5b9cfc9436909a2dad6020808301919091526001600160a01b038681168385015288811660608401528716608083015260a0820185905260c08083018590528351808403909101815260e0909201909252805191012060009081610abb612744565b60405161190160f01b602082015260228101919091526042810183905260620160408051808303601f19018152919052805160209091012098975050505050505050565b606654606090600190600290811603610b335760405162461bcd60e51b8152600401610b2a9061576d565b60405180910390fd5b6000836001600160401b03811115610b4d57610b4d614e8b565b604051908082528060200260200182016040528015610b76578160200160208202803683370190505b50336000908152609a60205260408120549192506001600160a01b03909116905b85811015610e5257868682818110610bb157610bb1615757565b9050602002810190610bc391906157a4565b610bd19060208101906157c4565b9050878783818110610be557610be5615757565b9050602002810190610bf791906157a4565b610c0190806157c4565b905014610c765760405162461bcd60e51b815260206004820152603860248201527f44656c65676174696f6e4d616e616765722e717565756557697468647261776160448201527f6c3a20696e707574206c656e677468206d69736d6174636800000000000000006064820152608401610b2a565b33878783818110610c8957610c89615757565b9050602002810190610c9b91906157a4565b610cac906060810190604001614c40565b6001600160a01b031614610d285760405162461bcd60e51b815260206004820152603c60248201527f44656c65676174696f6e4d616e616765722e717565756557697468647261776160448201527f6c3a2077697468647261776572206d757374206265207374616b6572000000006064820152608401610b2a565b610e2d3383898985818110610d3f57610d3f615757565b9050602002810190610d5191906157a4565b610d62906060810190604001614c40565b8a8a86818110610d7457610d74615757565b9050602002810190610d8691906157a4565b610d9090806157c4565b808060200260200160405190810160405280939291908181526020018383602002808284376000920191909152508e92508d9150889050818110610dd657610dd6615757565b9050602002810190610de891906157a4565b610df69060208101906157c4565b808060200260200160405190810160405280939291908181526020018383602002808284376000920191909152506128dd92505050565b838281518110610e3f57610e3f615757565b6020908102919091010152600101610b97565b509095945050505050565b336000908152609960205260409020546001600160a01b031615610ef75760405162461bcd60e51b815260206004820152604560248201527f44656c65676174696f6e4d616e616765722e726567697374657241734f70657260448201527f61746f723a206f70657261746f722068617320616c72656164792072656769736064820152641d195c995960da1b608482015260a401610b2a565b610f013384612e9f565b604080518082019091526060815260006020820152610f23338083600061313a565b336001600160a01b03167f8e8485583a2310d41f7c82b9427d0bd49bad74bb9cff9d3402a29d8f9b28a0e285604051610f5c919061580d565b60405180910390a2336001600160a01b03167f02a919ed0e2acad1dd90f17ef2fa4ae5462ee1339170034a8531cca4b67080908484604051610f9f929190615864565b60405180910390a250505050565b606560009054906101000a90046001600160a01b03166001600160a01b031663eab66d7a6040518163ffffffff1660e01b8152600401602060405180830381865afa158015611000573d6000803e3d6000fd5b505050506040513d601f19601f820116820180604052508101906110249190615893565b6001600160a01b0316336001600160a01b0316146110545760405162461bcd60e51b8152600401610b2a906158b0565b61105d816134de565b50565b336001600160a01b037f00000000000000000000000000000000000000000000000000000000000000001614806110bf5750336001600160a01b037f000000000000000000000000000000000000000000000000000000000000000016145b6110db5760405162461bcd60e51b8152600401610b2a906158fa565b6110e4836115bf565b15611112576001600160a01b038084166000908152609a602052604090205416611110818585856135d5565b505b505050565b60655460405163237dfb4760e11b81523360048201526001600160a01b03909116906346fbf68e90602401602060405180830381865afa15801561115f573d6000803e3d6000fd5b505050506040513d601f19601f820116820180604052508101906111839190615957565b61119f5760405162461bcd60e51b8152600401610b2a90615974565b606654818116146112185760405162461bcd60e51b815260206004820152603860248201527f5061757361626c652e70617573653a20696e76616c696420617474656d70742060448201527f746f20756e70617573652066756e6374696f6e616c69747900000000000000006064820152608401610b2a565b606681905560405181815233907fab40a374bc51de372200a8bc981af8c9ecdc08dfdaef0bb6e09f88f3c616ef3d906020015b60405180910390a250565b61125e613650565b611110848484846136aa565b6001600160a01b0383166000908152609b602052604081205461128f85828686611d08565b95945050505050565b600054610100900460ff16158080156112b85750600054600160ff909116105b806112d25750303b1580156112d2575060005460ff166001145b6113355760405162461bcd60e51b815260206004820152602e60248201527f496e697469616c697a61626c653a20636f6e747261637420697320616c72656160448201526d191e481a5b9a5d1a585b1a5e995960921b6064820152608401610b2a565b6000805460ff191660011790558015611358576000805461ff0019166101001790555b61136288886138ca565b61136a6139b0565b60975561137689613a47565b61137f86613a99565b61138b858585856136aa565b80156113d1576000805461ff0019169055604051600181527f7f26b83ff96e1f2b6a682f133852f6798a09c465da95921460cefb38474024989060200160405180910390a15b505050505050505050565b336001600160a01b037f000000000000000000000000000000000000000000000000000000000000000016148061143b5750336001600160a01b037f000000000000000000000000000000000000000000000000000000000000000016145b6114575760405162461bcd60e51b8152600401610b2a906158fa565b611460836115bf565b15611112576001600160a01b038084166000908152609a60205260409020541661111081858585613b93565b6066546002906004908116036114b45760405162461bcd60e51b8152600401610b2a9061576d565b600260c954036115065760405162461bcd60e51b815260206004820152601f60248201527f5265656e7472616e637947756172643a207265656e7472616e742063616c6c006044820152606401610b2a565b600260c95560005b888110156115ae576115a68a8a8381811061152b5761152b615757565b905060200281019061153d91906159bc565b89898481811061154f5761154f615757565b905060200281019061156191906157c4565b89898681811061157357611573615757565b9050602002013588888781811061158c5761158c615757565b90506020020160208101906115a191906159d2565b613c0e565b60010161150e565b5050600160c9555050505050505050565b6001600160a01b039081166000908152609a602052604090205416151590565b60655460405163237dfb4760e11b81523360048201526001600160a01b03909116906346fbf68e90602401602060405180830381865afa158015611627573d6000803e3d6000fd5b505050506040513d601f19601f8201168201806040525081019061164b9190615957565b6116675760405162461bcd60e51b8152600401610b2a90615974565b600019606681905560405190815233907fab40a374bc51de372200a8bc981af8c9ecdc08dfdaef0bb6e09f88f3c616ef3d9060200160405180910390a2565b6000816040516020016116b99190615a6e565b604051602081830303815290604052805190602001209050919050565b60005b815181101561197d5760008282815181106116f6576116f6615757565b602002602001015190506000807f00000000000000000000000000000000000000000000000000000000000000006001600160a01b031663cd293f6f846040518263ffffffff1660e01b815260040161174f9190615a81565b60408051808303816000875af115801561176d573d6000803e3d6000fd5b505050506040513d601f19601f820116820180604052508101906117919190615b2e565b91509150811561196f576040808401516001600160a01b0381166000908152609f602052918220805491928291906117c883615b72565b919050555060006040518060e00160405280846001600160a01b031681526020018760a001516001600160a01b031681526020018760600151600001516001600160a01b03168152602001838152602001876080015163ffffffff16815260200187600001518152602001876020015181525090506000611848826116a6565b6000818152609e602052604090205490915060ff16156118de5760405162461bcd60e51b815260206004820152604560248201527f44656c65676174696f6e4d616e616765722e6d6967726174655175657565645760448201527f69746864726177616c733a207769746864726177616c20616c72656164792065606482015264786973747360d81b608482015260a401610b2a565b6000818152609e602052604090819020805460ff19166001179055517f9009ab153e8014fbfb02f2217f5cde7aa7f9ad734ae85ca3ee3f4ca2fdd499f9906119299083908590615b8b565b60405180910390a160408051868152602081018390527fdc00758b65eef71dc3780c04ebe36cab6bdb266c3a698187e29e0f0dca012630910160405180910390a1505050505b8360010193505050506116d9565b5050565b6066546002906004908116036119a95760405162461bcd60e51b8152600401610b2a9061576d565b600260c954036119fb5760405162461bcd60e51b815260206004820152601f60248201527f5265656e7472616e637947756172643a207265656e7472616e742063616c6c006044820152606401610b2a565b600260c955611a0d8686868686613c0e565b5050600160c95550505050565b611a22613650565b61105d81613a99565b6001600160a01b0390811660009081526099602052604090205416151590565b611a53613650565b611a5d6000613a47565b565b4283602001511015611ae35760405162461bcd60e51b815260206004820152604160248201527f44656c65676174696f6e4d616e616765722e64656c6567617465546f4279536960448201527f676e61747572653a207374616b6572207369676e6174757265206578706972656064820152601960fa1b608482015260a401610b2a565b6000609b6000876001600160a01b03166001600160a01b031681526020019081526020016000205490506000611b1f8783888860200151611d08565b6001600160a01b0388166000908152609b602052604090206001840190558551909150611b4f90889083906143f7565b611b5b8787868661313a565b50505050505050565b6060600082516001600160401b03811115611b8157611b81614e8b565b604051908082528060200260200182016040528015611baa578160200160208202803683370190505b50905060005b8351811015610a33576001600160a01b03851660009081526098602052604081208551909190869084908110611be857611be8615757565b60200260200101516001600160a01b03166001600160a01b0316815260200190815260200160002054828281518110611c2357611c23615757565b6020908102919091010152600101611bb0565b611c3f33611a2b565b611cc15760405162461bcd60e51b815260206004820152604760248201527f44656c65676174696f6e4d616e616765722e7570646174654f70657261746f7260448201527f4d657461646174615552493a2063616c6c6572206d75737420626520616e206f6064820152663832b930ba37b960c91b608482015260a401610b2a565b336001600160a01b03167f02a919ed0e2acad1dd90f17ef2fa4ae5462ee1339170034a8531cca4b67080908383604051611cfc929190615864565b60405180910390a25050565b604080517f39111bc4a4d688e1f685123d7497d4615370152a8ee4a0593e647bd06ad8bb0b6020808301919091526001600160a01b0387811683850152851660608301526080820186905260a08083018590528351808403909101815260c0909201909252805191012060009081611d7e612744565b60405161190160f01b602082015260228101919091526042810183905260620160408051808303601f190181529190528051602090910120979650505050505050565b6040516360f4062b60e01b81526001600160a01b03828116600483015260609182916000917f0000000000000000000000000000000000000000000000000000000000000000909116906360f4062b90602401602060405180830381865afa158015611e31573d6000803e3d6000fd5b505050506040513d601f19601f82011682018060405250810190611e559190615ba4565b6040516394f649dd60e01b81526001600160a01b03868116600483015291925060009182917f0000000000000000000000000000000000000000000000000000000000000000909116906394f649dd90602401600060405180830381865afa158015611ec5573d6000803e3d6000fd5b505050506040513d6000823e601f3d908101601f19168201604052611eed9190810190615c1b565b9150915060008313611f0457909590945092505050565b6060808351600003611fbd576040805160018082528183019092529060208083019080368337505060408051600180825281830190925292945090506020808301908036833701905050905073beac0eeeeeeeeeeeeeeeeeeeeeeeeeeeeeebeac082600081518110611f7857611f78615757565b60200260200101906001600160a01b031690816001600160a01b0316815250508481600081518110611fac57611fac615757565b60200260200101818152505061216b565b8351611fca906001615cdc565b6001600160401b03811115611fe157611fe1614e8b565b60405190808252806020026020018201604052801561200a578160200160208202803683370190505b50915081516001600160401b0381111561202657612026614e8b565b60405190808252806020026020018201604052801561204f578160200160208202803683370190505b50905060005b84518110156120e95784818151811061207057612070615757565b602002602001015183828151811061208a5761208a615757565b60200260200101906001600160a01b031690816001600160a01b0316815250508381815181106120bc576120bc615757565b60200260200101518282815181106120d6576120d6615757565b6020908102919091010152600101612055565b5073beac0eeeeeeeeeeeeeeeeeeeeeeeeeeeeeebeac0826001845161210e9190615cef565b8151811061211e5761211e615757565b60200260200101906001600160a01b031690816001600160a01b03168152505084816001845161214e9190615cef565b8151811061215e5761215e615757565b6020026020010181815250505b9097909650945050505050565b6066546060906001906002908116036121a35760405162461bcd60e51b8152600401610b2a9061576d565b6121ac836115bf565b61222c5760405162461bcd60e51b8152602060048201526044602482018190527f44656c65676174696f6e4d616e616765722e756e64656c65676174653a207374908201527f616b6572206d7573742062652064656c65676174656420746f20756e64656c656064820152636761746560e01b608482015260a401610b2a565b61223583611a2b565b156122a85760405162461bcd60e51b815260206004820152603d60248201527f44656c65676174696f6e4d616e616765722e756e64656c65676174653a206f7060448201527f657261746f72732063616e6e6f7420626520756e64656c6567617465640000006064820152608401610b2a565b6001600160a01b0383166123245760405162461bcd60e51b815260206004820152603c60248201527f44656c65676174696f6e4d616e616765722e756e64656c65676174653a20636160448201527f6e6e6f7420756e64656c6567617465207a65726f2061646472657373000000006064820152608401610b2a565b6001600160a01b038084166000818152609a6020526040902054909116903314806123575750336001600160a01b038216145b8061237e57506001600160a01b038181166000908152609960205260409020600101541633145b6123f05760405162461bcd60e51b815260206004820152603d60248201527f44656c65676174696f6e4d616e616765722e756e64656c65676174653a20636160448201527f6c6c65722063616e6e6f7420756e64656c6567617465207374616b65720000006064820152608401610b2a565b6000806123fc86611dc1565b9092509050336001600160a01b0387161461245257826001600160a01b0316866001600160a01b03167ff0eddf07e6ea14f388b47e1e94a0f464ecbd9eed4171130e0fc0e99fb4030a8a60405160405180910390a35b826001600160a01b0316866001600160a01b03167ffee30966a256b71e14bc0ebfc94315e28ef4a97a7131a9e2b7a310a73af4467660405160405180910390a36001600160a01b0386166000908152609a6020526040812080546001600160a01b0319169055825190036124d6576040805160008152602081019091529450612628565b81516001600160401b038111156124ef576124ef614e8b565b604051908082528060200260200182016040528015612518578160200160208202803683370190505b50945060005b82518110156126265760408051600180825281830190925260009160208083019080368337505060408051600180825281830190925292935060009291506020808301908036833701905050905084838151811061257e5761257e615757565b60200260200101518260008151811061259957612599615757565b60200260200101906001600160a01b031690816001600160a01b0316815250508383815181106125cb576125cb615757565b6020026020010151816000815181106125e6576125e6615757565b6020026020010181815250506125ff89878b85856128dd565b88848151811061261157612611615757565b6020908102919091010152505060010161251e565b505b50505050919050565b6111123384848461313a565b61264633611a2b565b6126c45760405162461bcd60e51b815260206004820152604360248201527f44656c65676174696f6e4d616e616765722e6d6f646966794f70657261746f7260448201527f44657461696c733a2063616c6c6572206d75737420626520616e206f706572616064820152623a37b960e91b608482015260a401610b2a565b61105d3382612e9f565b6126d6613650565b6001600160a01b03811661273b5760405162461bcd60e51b815260206004820152602660248201527f4f776e61626c653a206e6577206f776e657220697320746865207a65726f206160448201526564647265737360d01b6064820152608401610b2a565b61105d81613a47565b60007f00000000000000000000000000000000000000000000000000000000000000004603612774575060975490565b61277c6139b0565b905090565b606560009054906101000a90046001600160a01b03166001600160a01b031663eab66d7a6040518163ffffffff1660e01b8152600401602060405180830381865afa1580156127d4573d6000803e3d6000fd5b505050506040513d601f19601f820116820180604052508101906127f89190615893565b6001600160a01b0316336001600160a01b0316146128285760405162461bcd60e51b8152600401610b2a906158b0565b6066541981196066541916146128a65760405162461bcd60e51b815260206004820152603860248201527f5061757361626c652e756e70617573653a20696e76616c696420617474656d7060448201527f7420746f2070617573652066756e6374696f6e616c69747900000000000000006064820152608401610b2a565b606681905560405181815233907f3582d1828e26bf56bd801502bc021ac0bc8afb57c826e4986b45593c8fad389c9060200161124b565b60006001600160a01b0386166129745760405162461bcd60e51b815260206004820152605060248201527f44656c65676174696f6e4d616e616765722e5f72656d6f76655368617265734160448201527f6e6451756575655769746864726177616c3a207374616b65722063616e6e6f7460648201526f206265207a65726f206164647265737360801b608482015260a401610b2a565b8251600003612a015760405162461bcd60e51b815260206004820152604d60248201527f44656c65676174696f6e4d616e616765722e5f72656d6f76655368617265734160448201527f6e6451756575655769746864726177616c3a207374726174656769657320636160648201526c6e6e6f7420626520656d70747960981b608482015260a401610b2a565b60005b8351811015612dad576001600160a01b03861615612a5a57612a5a8688868481518110612a3357612a33615757565b6020026020010151868581518110612a4d57612a4d615757565b60200260200101516135d5565b73beac0eeeeeeeeeeeeeeeeeeeeeeeeeeeeeebeac06001600160a01b0316848281518110612a8a57612a8a615757565b60200260200101516001600160a01b031603612b52577f00000000000000000000000000000000000000000000000000000000000000006001600160a01b031663beffbb8988858481518110612ae257612ae2615757565b60200260200101516040518363ffffffff1660e01b8152600401612b1b9291906001600160a01b03929092168252602082015260400190565b600060405180830381600087803b158015612b3557600080fd5b505af1158015612b49573d6000803e3d6000fd5b50505050612da5565b846001600160a01b0316876001600160a01b03161480612c2457507f00000000000000000000000000000000000000000000000000000000000000006001600160a01b0316639b4da03d858381518110612bae57612bae615757565b60200260200101516040518263ffffffff1660e01b8152600401612be191906001600160a01b0391909116815260200190565b602060405180830381865afa158015612bfe573d6000803e3d6000fd5b505050506040513d601f19601f82011682018060405250810190612c229190615957565b155b612cf05760405162461bcd60e51b8152602060048201526084602482018190527f44656c65676174696f6e4d616e616765722e5f72656d6f76655368617265734160448301527f6e6451756575655769746864726177616c3a2077697468647261776572206d7560648301527f73742062652073616d652061646472657373206173207374616b657220696620908201527f746869726450617274795472616e7366657273466f7262696464656e2061726560a482015263081cd95d60e21b60c482015260e401610b2a565b7f00000000000000000000000000000000000000000000000000000000000000006001600160a01b0316638c80d4e588868481518110612d3257612d32615757565b6020026020010151868581518110612d4c57612d4c615757565b60200260200101516040518463ffffffff1660e01b8152600401612d7293929190615d02565b600060405180830381600087803b158015612d8c57600080fd5b505af1158015612da0573d6000803e3d6000fd5b505050505b600101612a04565b506001600160a01b0386166000908152609f60205260408120805491829190612dd583615b72565b919050555060006040518060e00160405280896001600160a01b03168152602001886001600160a01b03168152602001876001600160a01b031681526020018381526020014363ffffffff1681526020018681526020018581525090506000612e3d826116a6565b6000818152609e602052604090819020805460ff19166001179055519091507f9009ab153e8014fbfb02f2217f5cde7aa7f9ad734ae85ca3ee3f4ca2fdd499f990612e8b9083908590615b8b565b60405180910390a198975050505050505050565b6000612eae6020830183614c40565b6001600160a01b031603612f475760405162461bcd60e51b815260206004820152605460248201527f44656c65676174696f6e4d616e616765722e5f7365744f70657261746f72446560448201527f7461696c733a2063616e6e6f742073657420606561726e696e677352656365696064820152737665726020746f207a65726f206164647265737360601b608482015260a401610b2a565b6213c680612f5b6060830160408401615d26565b63ffffffff1611156130105760405162461bcd60e51b815260206004820152606c60248201527f44656c65676174696f6e4d616e616765722e5f7365744f70657261746f72446560448201527f7461696c733a207374616b65724f70744f757457696e646f77426c6f636b732060648201527f63616e6e6f74206265203e204d41585f5354414b45525f4f50545f4f55545f5760848201526b494e444f575f424c4f434b5360a01b60a482015260c401610b2a565b6001600160a01b0382166000908152609960205260409081902060010154600160a01b900463ffffffff169061304c9060608401908401615d26565b63ffffffff1610156130e25760405162461bcd60e51b815260206004820152605360248201527f44656c65676174696f6e4d616e616765722e5f7365744f70657261746f72446560448201527f7461696c733a207374616b65724f70744f757457696e646f77426c6f636b732060648201527218d85b9b9bdd08189948191958dc99585cd959606a1b608482015260a401610b2a565b6001600160a01b038216600090815260996020526040902081906131068282615d63565b505060405133907ffebe5cd24b2cbc7b065b9d0fdeb904461e4afcff57dd57acda1e7832031ba7ac90611cfc90849061580d565b6066546000906001908116036131625760405162461bcd60e51b8152600401610b2a9061576d565b61316b856115bf565b156131e85760405162461bcd60e51b815260206004820152604160248201527f44656c65676174696f6e4d616e616765722e5f64656c65676174653a2073746160448201527f6b657220697320616c7265616479206163746976656c792064656c65676174656064820152601960fa1b608482015260a401610b2a565b6131f184611a2b565b6132715760405162461bcd60e51b815260206004820152604560248201527f44656c65676174696f6e4d616e616765722e5f64656c65676174653a206f706560448201527f7261746f72206973206e6f74207265676973746572656420696e20456967656e6064820152642630bcb2b960d91b608482015260a401610b2a565b6001600160a01b038085166000908152609960205260409020600101541680158015906132a75750336001600160a01b03821614155b80156132bc5750336001600160a01b03861614155b1561342957428460200151101561333b5760405162461bcd60e51b815260206004820152603760248201527f44656c65676174696f6e4d616e616765722e5f64656c65676174653a2061707060448201527f726f766572207369676e617475726520657870697265640000000000000000006064820152608401610b2a565b6001600160a01b0381166000908152609c6020908152604080832086845290915290205460ff16156133d55760405162461bcd60e51b815260206004820152603760248201527f44656c65676174696f6e4d616e616765722e5f64656c65676174653a2061707060448201527f726f76657253616c7420616c7265616479207370656e740000000000000000006064820152608401610b2a565b6001600160a01b0381166000908152609c6020908152604080832086845282528220805460ff19166001179055850151613416908890889085908890610a3d565b9050613427828287600001516143f7565b505b6001600160a01b038681166000818152609a602052604080822080546001600160a01b031916948a169485179055517fc3ee9f2e5fda98e8066a1f745b2df9285f416fe98cf2559cd21484b3d87433049190a360008061348888611dc1565b9150915060005b82518110156113d1576134d6888a8584815181106134af576134af615757565b60200260200101518585815181106134c9576134c9615757565b6020026020010151613b93565b60010161348f565b6001600160a01b03811661356c5760405162461bcd60e51b815260206004820152604960248201527f5061757361626c652e5f73657450617573657252656769737472793a206e657760448201527f50617573657252656769737472792063616e6e6f7420626520746865207a65726064820152686f206164647265737360b81b608482015260a401610b2a565b606554604080516001600160a01b03928316815291831660208301527f6e9fcd539896fca60e8b0f01dd580233e48a6b0f7df013b89ba7f565869acdb6910160405180910390a1606580546001600160a01b0319166001600160a01b0392909216919091179055565b6001600160a01b0380851660009081526098602090815260408083209386168352929052908120805483929061360c908490615cef565b92505081905550836001600160a01b03167f6909600037b75d7b4733aedd815442b5ec018a827751c832aaff64eba5d6d2dd848484604051610f9f93929190615d02565b6033546001600160a01b03163314611a5d5760405162461bcd60e51b815260206004820181905260248201527f4f776e61626c653a2063616c6c6572206973206e6f7420746865206f776e65726044820152606401610b2a565b8281146137325760405162461bcd60e51b815260206004820152604a60248201527f44656c65676174696f6e4d616e616765722e5f7365745374726174656779576960448201527f746864726177616c44656c6179426c6f636b733a20696e707574206c656e67746064820152690d040dad2e6dac2e8c6d60b31b608482015260a401610b2a565b8260005b818110156138c257600086868381811061375257613752615757565b90506020020160208101906137679190614c40565b6001600160a01b038116600090815260a1602052604081205491925086868581811061379557613795615757565b90506020020135905062034bc08111156138595760405162461bcd60e51b815260206004820152607360248201527f44656c65676174696f6e4d616e616765722e5f7365745374726174656779576960448201527f746864726177616c44656c6179426c6f636b733a205f7769746864726177616c60648201527f44656c6179426c6f636b732063616e6e6f74206265203e204d41585f5749544860848201527244524157414c5f44454c41595f424c4f434b5360681b60a482015260c401610b2a565b6001600160a01b038316600081815260a160209081526040918290208490558151928352820184905281018290527f0e7efa738e8b0ce6376a0c1af471655540d2e9a81647d7b09ed823018426576d9060600160405180910390a1505050806001019050613736565b505050505050565b6065546001600160a01b03161580156138eb57506001600160a01b03821615155b61396d5760405162461bcd60e51b815260206004820152604760248201527f5061757361626c652e5f696e697469616c697a655061757365723a205f696e6960448201527f7469616c697a6550617573657228292063616e206f6e6c792062652063616c6c6064820152666564206f6e636560c81b608482015260a401610b2a565b606681905560405181815233907fab40a374bc51de372200a8bc981af8c9ecdc08dfdaef0bb6e09f88f3c616ef3d9060200160405180910390a261197d826134de565b604080518082018252600a81526922b4b3b2b72630bcb2b960b11b60209182015281517f8cad95687ba82c2ce50e74f7b754645e5117c3a5bec8151c0726d5857980a866818301527f71b625cfad44bac63b13dba07f2e1d6084ee04b6f8752101ece6126d584ee6ea81840152466060820152306080808301919091528351808303909101815260a0909101909252815191012090565b603380546001600160a01b038381166001600160a01b0319831681179093556040519116919082907f8be0079c531659141344cd1fd0a4f28419497f9722a3daafe3b4186f6b6457e090600090a35050565b62034bc0811115613b525760405162461bcd60e51b815260206004820152607160248201527f44656c65676174696f6e4d616e616765722e5f7365744d696e5769746864726160448201527f77616c44656c6179426c6f636b733a205f6d696e5769746864726177616c446560648201527f6c6179426c6f636b732063616e6e6f74206265203e204d41585f5749544844526084820152704157414c5f44454c41595f424c4f434b5360781b60a482015260c401610b2a565b609d5460408051918252602082018390527fafa003cd76f87ff9d62b35beea889920f33c0c42b8d45b74954d61d50f4b6b69910160405180910390a1609d55565b6001600160a01b03808516600090815260986020908152604080832093861683529290529081208054839290613bca908490615cdc565b92505081905550836001600160a01b03167f1ec042c965e2edd7107b51188ee0f383e22e76179041ab3a9d18ff151405166c848484604051610f9f93929190615d02565b6000613c1c61062987615dc6565b6000818152609e602052604090205490915060ff16613c9d5760405162461bcd60e51b81526020600482015260436024820152600080516020615ef083398151915260448201527f645769746864726177616c3a20616374696f6e206973206e6f7420696e20717560648201526265756560e81b608482015260a401610b2a565b609d544390613cb260a0890160808a01615d26565b63ffffffff16613cc29190615cdc565b1115613d4a5760405162461bcd60e51b815260206004820152605f6024820152600080516020615ef083398151915260448201527f645769746864726177616c3a206d696e5769746864726177616c44656c61794260648201527f6c6f636b7320706572696f6420686173206e6f74207965742070617373656400608482015260a401610b2a565b613d5a6060870160408801614c40565b6001600160a01b0316336001600160a01b031614613de75760405162461bcd60e51b81526020600482015260506024820152600080516020615ef083398151915260448201527f645769746864726177616c3a206f6e6c7920776974686472617765722063616e60648201526f1031b7b6b83632ba329030b1ba34b7b760811b608482015260a401610b2a565b8115613e6957613dfa60a08701876157c4565b85149050613e695760405162461bcd60e51b81526020600482015260426024820152600080516020615ef083398151915260448201527f645769746864726177616c3a20696e707574206c656e677468206d69736d61746064820152610c6d60f31b608482015260a401610b2a565b6000818152609e60205260409020805460ff191690558115613fce5760005b613e9560a08801886157c4565b9050811015613fc8574360a16000613eb060a08b018b6157c4565b85818110613ec057613ec0615757565b9050602002016020810190613ed59190614c40565b6001600160a01b03168152602081019190915260400160002054613eff60a08a0160808b01615d26565b63ffffffff16613f0f9190615cdc565b1115613f2d5760405162461bcd60e51b8152600401610b2a90615dd2565b613fc0613f3d6020890189614c40565b33613f4b60a08b018b6157c4565b85818110613f5b57613f5b615757565b9050602002016020810190613f709190614c40565b613f7d60c08c018c6157c4565b86818110613f8d57613f8d615757565b905060200201358a8a87818110613fa657613fa6615757565b9050602002016020810190613fbb9190614c40565b6145b1565b600101613e88565b506143bc565b336000908152609a60205260408120546001600160a01b0316905b613ff660a08901896157c4565b90508110156143b9574360a1600061401160a08c018c6157c4565b8581811061402157614021615757565b90506020020160208101906140369190614c40565b6001600160a01b0316815260208101919091526040016000205461406060a08b0160808c01615d26565b63ffffffff166140709190615cdc565b111561408e5760405162461bcd60e51b8152600401610b2a90615dd2565b73beac0eeeeeeeeeeeeeeeeeeeeeeeeeeeeeebeac06140b060a08a018a6157c4565b838181106140c0576140c0615757565b90506020020160208101906140d59190614c40565b6001600160a01b0316036142245760006140f260208a018a614c40565b905060006001600160a01b037f000000000000000000000000000000000000000000000000000000000000000016630e81073c8361413360c08e018e6157c4565b8781811061414357614143615757565b6040516001600160e01b031960e087901b1681526001600160a01b03909416600485015260200291909101356024830152506044016020604051808303816000875af1158015614197573d6000803e3d6000fd5b505050506040513d601f19601f820116820180604052508101906141bb9190615ba4565b6001600160a01b038084166000908152609a602052604090205491925016801561421c5761421c81846141f160a08f018f6157c4565b8881811061420157614201615757565b90506020020160208101906142169190614c40565b85613b93565b5050506143b1565b7f00000000000000000000000000000000000000000000000000000000000000006001600160a01b031663c4623ea13389898581811061426657614266615757565b905060200201602081019061427b9190614c40565b61428860a08d018d6157c4565b8681811061429857614298615757565b90506020020160208101906142ad9190614c40565b6142ba60c08e018e6157c4565b878181106142ca576142ca615757565b60405160e088901b6001600160e01b03191681526001600160a01b03968716600482015294861660248601529290941660448401526020909102013560648201526084019050600060405180830381600087803b15801561432a57600080fd5b505af115801561433e573d6000803e3d6000fd5b505050506001600160a01b038216156143b1576143b1823361436360a08c018c6157c4565b8581811061437357614373615757565b90506020020160208101906143889190614c40565b61439560c08d018d6157c4565b868181106143a5576143a5615757565b90506020020135613b93565b600101613fe9565b50505b6040518181527fc97098c2f658800b4df29001527f7324bcdffcf6e8751a699ab920a1eced5b1d9060200160405180910390a1505050505050565b6001600160a01b0383163b1561451157604051630b135d3f60e11b808252906001600160a01b03851690631626ba7e906144379086908690600401615e5a565b602060405180830381865afa158015614454573d6000803e3d6000fd5b505050506040513d601f19601f820116820180604052508101906144789190615eaf565b6001600160e01b031916146111125760405162461bcd60e51b815260206004820152605360248201527f454950313237315369676e61747572655574696c732e636865636b5369676e6160448201527f747572655f454950313237313a2045524331323731207369676e6174757265206064820152721d995c9a599a58d85d1a5bdb8819985a5b1959606a1b608482015260a401610b2a565b826001600160a01b031661452583836146f1565b6001600160a01b0316146111125760405162461bcd60e51b815260206004820152604760248201527f454950313237315369676e61747572655574696c732e636865636b5369676e6160448201527f747572655f454950313237313a207369676e6174757265206e6f742066726f6d6064820152661039b4b3b732b960c91b608482015260a401610b2a565b73beac0eeeeeeeeeeeeeeeeeeeeeeeeeeeeeebeabf196001600160a01b0384160161465c5760405162387b1360e81b81526001600160a01b037f0000000000000000000000000000000000000000000000000000000000000000169063387b13009061462590889088908790600401615d02565b600060405180830381600087803b15801561463f57600080fd5b505af1158015614653573d6000803e3d6000fd5b505050506146ea565b60405163c608c7f360e01b81526001600160a01b03858116600483015284811660248301526044820184905282811660648301527f0000000000000000000000000000000000000000000000000000000000000000169063c608c7f390608401600060405180830381600087803b1580156146d657600080fd5b505af11580156113d1573d6000803e3d6000fd5b5050505050565b6000806000614700858561470d565b91509150610a338161477b565b60008082516041036147435760208301516040840151606085015160001a61473787828585614931565b94509450505050614774565b825160400361476c5760208301516040840151614761868383614a1e565b935093505050614774565b506000905060025b9250929050565b600081600481111561478f5761478f615ed9565b036147975750565b60018160048111156147ab576147ab615ed9565b036147f85760405162461bcd60e51b815260206004820152601860248201527f45434453413a20696e76616c6964207369676e617475726500000000000000006044820152606401610b2a565b600281600481111561480c5761480c615ed9565b036148595760405162461bcd60e51b815260206004820152601f60248201527f45434453413a20696e76616c6964207369676e6174757265206c656e677468006044820152606401610b2a565b600381600481111561486d5761486d615ed9565b036148c55760405162461bcd60e51b815260206004820152602260248201527f45434453413a20696e76616c6964207369676e6174757265202773272076616c604482015261756560f01b6064820152608401610b2a565b60048160048111156148d9576148d9615ed9565b0361105d5760405162461bcd60e51b815260206004820152602260248201527f45434453413a20696e76616c6964207369676e6174757265202776272076616c604482015261756560f01b6064820152608401610b2a565b6000807f7fffffffffffffffffffffffffffffff5d576e7357a4501ddfe92f46681b20a08311156149685750600090506003614a15565b8460ff16601b1415801561498057508460ff16601c14155b156149915750600090506004614a15565b6040805160008082526020820180845289905260ff881692820192909252606081018690526080810185905260019060a0016020604051602081039080840390855afa1580156149e5573d6000803e3d6000fd5b5050604051601f1901519150506001600160a01b038116614a0e57600060019250925050614a15565b9150600090505b94509492505050565b6000806001600160ff1b03831681614a3b60ff86901c601b615cdc565b9050614a4987828885614931565b935093505050935093915050565b60008083601f840112614a6957600080fd5b5081356001600160401b03811115614a8057600080fd5b6020830191508360208260051b850101111561477457600080fd5b60008060208385031215614aae57600080fd5b82356001600160401b03811115614ac457600080fd5b614ad085828601614a57565b90969095509350505050565b6001600160a01b038116811461105d57600080fd5b8035614afc81614adc565b919050565b600080600080600060a08688031215614b1957600080fd5b8535614b2481614adc565b94506020860135614b3481614adc565b93506040860135614b4481614adc565b94979396509394606081013594506080013592915050565b602080825282518282018190526000918401906040840190835b81811015610e52578351835260209384019390920191600101614b76565b600060608284031215614ba657600080fd5b50919050565b60008083601f840112614bbe57600080fd5b5081356001600160401b03811115614bd557600080fd5b60208301915083602082850101111561477457600080fd5b600080600060808486031215614c0257600080fd5b614c0c8585614b94565b925060608401356001600160401b03811115614c2757600080fd5b614c3386828701614bac565b9497909650939450505050565b600060208284031215614c5257600080fd5b8135614c5d81614adc565b9392505050565b600080600060608486031215614c7957600080fd5b8335614c8481614adc565b92506020840135614c9481614adc565b929592945050506040919091013590565b600060208284031215614cb757600080fd5b5035919050565b60008060008060408587031215614cd457600080fd5b84356001600160401b03811115614cea57600080fd5b614cf687828801614a57565b90955093505060208501356001600160401b03811115614d1557600080fd5b614d2187828801614a57565b95989497509550505050565b60008060008060008060008060c0898b031215614d4957600080fd5b8835614d5481614adc565b97506020890135614d6481614adc565b9650604089013595506060890135945060808901356001600160401b03811115614d8d57600080fd5b614d998b828c01614a57565b90955093505060a08901356001600160401b03811115614db857600080fd5b614dc48b828c01614a57565b999c989b5096995094979396929594505050565b6000806000806000806000806080898b031215614df457600080fd5b88356001600160401b03811115614e0a57600080fd5b614e168b828c01614a57565b90995097505060208901356001600160401b03811115614e3557600080fd5b614e418b828c01614a57565b90975095505060408901356001600160401b03811115614e6057600080fd5b614e6c8b828c01614a57565b90955093505060608901356001600160401b03811115614db857600080fd5b634e487b7160e01b600052604160045260246000fd5b60405160e081016001600160401b0381118282101715614ec357614ec3614e8b565b60405290565b604080519081016001600160401b0381118282101715614ec357614ec3614e8b565b60405160c081016001600160401b0381118282101715614ec357614ec3614e8b565b604051601f8201601f191681016001600160401b0381118282101715614f3557614f35614e8b565b604052919050565b63ffffffff8116811461105d57600080fd5b8035614afc81614f3d565b60006001600160401b03821115614f7357614f73614e8b565b5060051b60200190565b600082601f830112614f8e57600080fd5b8135614fa1614f9c82614f5a565b614f0d565b8082825260208201915060208360051b860101925085831115614fc357600080fd5b602085015b83811015614fe9578035614fdb81614adc565b835260209283019201614fc8565b5095945050505050565b600082601f83011261500457600080fd5b8135615012614f9c82614f5a565b8082825260208201915060208360051b86010192508583111561503457600080fd5b602085015b83811015614fe9578035835260209283019201615039565b600060e0828403121561506357600080fd5b61506b614ea1565b905061507682614af1565b815261508460208301614af1565b602082015261509560408301614af1565b6040820152606082810135908201526150b060808301614f4f565b608082015260a08201356001600160401b038111156150ce57600080fd5b6150da84828501614f7d565b60a08301525060c08201356001600160401b038111156150f957600080fd5b61510584828501614ff3565b60c08301525092915050565b60006020828403121561512357600080fd5b81356001600160401b0381111561513957600080fd5b61514584828501615051565b949350505050565b60006020828403121561515f57600080fd5b813560ff81168114614c5d57600080fd5b60006040828403121561518257600080fd5b61518a614ec9565b9050813561519781614adc565b815260208201356bffffffffffffffffffffffff811681146151b857600080fd5b602082015292915050565b6000602082840312156151d557600080fd5b81356001600160401b038111156151eb57600080fd5b8201601f810184136151fc57600080fd5b803561520a614f9c82614f5a565b8082825260208201915060208360051b85010192508683111561522c57600080fd5b602084015b8381101561531a5780356001600160401b0381111561524f57600080fd5b850160e0818a03601f1901121561526557600080fd5b61526d614eeb565b60208201356001600160401b0381111561528657600080fd5b6152958b602083860101614f7d565b82525060408201356001600160401b038111156152b157600080fd5b6152c08b602083860101614ff3565b6020830152506152d260608301614af1565b60408201526152e48a60808401615170565b60608201526152f560c08301614f4f565b608082015261530660e08301614af1565b60a082015284525060209283019201615231565b509695505050505050565b801515811461105d57600080fd5b60008060008060006080868803121561534b57600080fd5b85356001600160401b0381111561536157600080fd5b860160e0818903121561537357600080fd5b945060208601356001600160401b0381111561538e57600080fd5b61539a88828901614a57565b9095509350506040860135915060608601356153b581615325565b809150509295509295909350565b600080604083850312156153d657600080fd5b82356153e181614adc565b915060208301356153f181614adc565b809150509250929050565b60006040828403121561540e57600080fd5b615416614ec9565b905081356001600160401b0381111561542e57600080fd5b8201601f8101841361543f57600080fd5b80356001600160401b0381111561545857615458614e8b565b61546b601f8201601f1916602001614f0d565b81815285602083850101111561548057600080fd5b81602084016020830137600060209282018301528352928301359282019290925292915050565b600080600080600060a086880312156154bf57600080fd5b85356154ca81614adc565b945060208601356154da81614adc565b935060408601356001600160401b038111156154f557600080fd5b615501888289016153fc565b93505060608601356001600160401b0381111561551d57600080fd5b615529888289016153fc565b95989497509295608001359392505050565b6000806040838503121561554e57600080fd5b823561555981614adc565b915060208301356001600160401b0381111561557457600080fd5b61558085828601614f7d565b9150509250929050565b600081518084526020840193506020830160005b828110156155bc57815186526020958601959091019060010161559e565b5093949350505050565b602081526000614c5d602083018461558a565b600080602083850312156155ec57600080fd5b82356001600160401b0381111561560257600080fd5b614ad085828601614bac565b6000806040838503121561562157600080fd5b823561562c81614adc565b946020939093013593505050565b6000806000806080858703121561565057600080fd5b843561565b81614adc565b935060208501359250604085013561567281614adc565b9396929550929360600135925050565b600081518084526020840193506020830160005b828110156155bc5781516001600160a01b0316865260209586019590910190600101615696565b6040815260006156d06040830185615682565b828103602084015261128f818561558a565b6000806000606084860312156156f757600080fd5b833561570281614adc565b925060208401356001600160401b0381111561571d57600080fd5b615729868287016153fc565b93969395505050506040919091013590565b60006060828403121561574d57600080fd5b614c5d8383614b94565b634e487b7160e01b600052603260045260246000fd5b60208082526019908201527f5061757361626c653a20696e6465782069732070617573656400000000000000604082015260600190565b60008235605e198336030181126157ba57600080fd5b9190910192915050565b6000808335601e198436030181126157db57600080fd5b8301803591506001600160401b038211156157f557600080fd5b6020019150600581901b360382131561477457600080fd5b60608101823561581c81614adc565b6001600160a01b03168252602083013561583581614adc565b6001600160a01b03166020830152604083013561585181614f3d565b63ffffffff811660408401525092915050565b60208152816020820152818360408301376000818301604090810191909152601f909201601f19160101919050565b6000602082840312156158a557600080fd5b8151614c5d81614adc565b6020808252602a908201527f6d73672e73656e646572206973206e6f74207065726d697373696f6e6564206160408201526939903ab73830bab9b2b960b11b606082015260800190565b60208082526037908201527f44656c65676174696f6e4d616e616765723a206f6e6c7953747261746567794d60408201527f616e616765724f72456967656e506f644d616e61676572000000000000000000606082015260800190565b60006020828403121561596957600080fd5b8151614c5d81615325565b60208082526028908201527f6d73672e73656e646572206973206e6f74207065726d697373696f6e6564206160408201526739903830bab9b2b960c11b606082015260800190565b6000823560de198336030181126157ba57600080fd5b6000602082840312156159e457600080fd5b8135614c5d81615325565b80516001600160a01b0390811683526020808301518216908401526040808301519091169083015260608082015190830152608080820151600091615a3b9085018263ffffffff169052565b5060a082015160e060a0850152615a5560e0850182615682565b905060c083015184820360c086015261128f828261558a565b602081526000614c5d60208301846159ef565b602081526000825160e06020840152615a9e610100840182615682565b90506020840151601f19848303016040850152615abb828261558a565b91505060018060a01b036040850151166060840152606084015160018060a01b0381511660808501526bffffffffffffffffffffffff60208201511660a0850152506080840151615b1460c085018263ffffffff169052565b5060a08401516001600160a01b03811660e0850152610a33565b60008060408385031215615b4157600080fd5b8251615b4c81615325565b6020939093015192949293505050565b634e487b7160e01b600052601160045260246000fd5b600060018201615b8457615b84615b5c565b5060010190565b82815260406020820152600061514560408301846159ef565b600060208284031215615bb657600080fd5b5051919050565b600082601f830112615bce57600080fd5b8151615bdc614f9c82614f5a565b8082825260208201915060208360051b860101925085831115615bfe57600080fd5b602085015b83811015614fe9578051835260209283019201615c03565b60008060408385031215615c2e57600080fd5b82516001600160401b03811115615c4457600080fd5b8301601f81018513615c5557600080fd5b8051615c63614f9c82614f5a565b8082825260208201915060208360051b850101925087831115615c8557600080fd5b6020840193505b82841015615cb0578351615c9f81614adc565b825260209384019390910190615c8c565b8095505050505060208301516001600160401b03811115615cd057600080fd5b61558085828601615bbd565b80820180821115610a3757610a37615b5c565b81810381811115610a3757610a37615b5c565b6001600160a01b039384168152919092166020820152604081019190915260600190565b600060208284031215615d3857600080fd5b8135614c5d81614f3d565b80546001600160a01b0319166001600160a01b0392909216919091179055565b8135615d6e81614adc565b615d788183615d43565b50600181016020830135615d8b81614adc565b615d958183615d43565b506040830135615da481614f3d565b815463ffffffff60a01b191660a09190911b63ffffffff60a01b161790555050565b6000610a373683615051565b6020808252606e90820152600080516020615ef083398151915260408201527f645769746864726177616c3a207769746864726177616c44656c6179426c6f6360608201527f6b7320706572696f6420686173206e6f74207965742070617373656420666f7260808201526d207468697320737472617465677960901b60a082015260c00190565b828152604060208201526000825180604084015260005b81811015615e8e5760208186018101516060868401015201615e71565b506000606082850101526060601f19601f8301168401019150509392505050565b600060208284031215615ec157600080fd5b81516001600160e01b031981168114614c5d57600080fd5b634e487b7160e01b600052602160045260246000fdfe44656c65676174696f6e4d616e616765722e5f636f6d706c6574655175657565a2646970667358221220dc8af488fb28e8a0e8819a77a4ffe5fed5230ed3d4fcd1744be21911972b43ad64736f6c634300081a0033",
        "linkReferences": {}
    },
    "methodIdentifiers": {
        "DELEGATION_APPROVAL_TYPEHASH()": "04a4f979",
        "DOMAIN_TYPEHASH()": "20606b70",
        "MAX_STAKER_OPT_OUT_WINDOW_BLOCKS()": "4fc40b61",
        "MAX_WITHDRAWAL_DELAY_BLOCKS()": "ca661c04",
        "STAKER_DELEGATION_TYPEHASH()": "43377382",
        "beaconChainETHStrategy()": "9104c319",
        "calculateCurrentStakerDelegationDigestHash(address,address,uint256)": "1bbce091",
        "calculateDelegationApprovalDigestHash(address,address,address,bytes32,uint256)": "0b9f487a",
        "calculateStakerDelegationDigestHash(address,uint256,address,uint256)": "c94b5111",
        "calculateWithdrawalRoot((address,address,address,uint256,uint32,address[],uint256[]))": "597b36da",
        "completeQueuedWithdrawal((address,address,address,uint256,uint32,address[],uint256[]),address[],uint256,bool)": "60d7faed",
        "completeQueuedWithdrawals((address,address,address,uint256,uint32,address[],uint256[])[],address[][],uint256[],bool[])": "33404396",
        "cumulativeWithdrawalsQueued(address)": "a1788484",
        "decreaseDelegatedShares(address,address,uint256)": "132d4967",
        "delegateTo(address,(bytes,uint256),bytes32)": "eea9064b",
        "delegateToBySignature(address,address,(bytes,uint256),(bytes,uint256),bytes32)": "7f548071",
        "delegatedTo(address)": "65da1264",
        "delegationApprover(address)": "3cdeb5e0",
        "delegationApproverSaltIsSpent(address,bytes32)": "bb45fef2",
        "domainSeparator()": "f698da25",
        "earningsReceiver(address)": "5f966f14",
        "eigenPodManager()": "4665bcda",
        "getDelegatableShares(address)": "cf80873e",
        "getOperatorShares(address,address[])": "90041347",
        "getWithdrawalDelay(address[])": "0449ca39",
        "increaseDelegatedShares(address,address,uint256)": "28a573ae",
        "initialize(address,address,uint256,uint256,address[],uint256[])": "22bf40e4",
        "isDelegated(address)": "3e28391d",
        "isOperator(address)": "6d70f7ae",
        "migrateQueuedWithdrawals((address[],uint256[],address,(address,uint96),uint32,address)[])": "5cfe8d2c",
        "minWithdrawalDelayBlocks()": "c448feb8",
        "modifyOperatorDetails((address,address,uint32))": "f16172b0",
        "operatorDetails(address)": "c5e480db",
        "operatorShares(address,address)": "778e55f3",
        "owner()": "8da5cb5b",
        "pause(uint256)": "136439dd",
        "pauseAll()": "595c6a67",
        "paused()": "5c975abb",
        "paused(uint8)": "5ac86ab7",
        "pauserRegistry()": "886f1195",
        "pendingWithdrawals(bytes32)": "b7f06ebe",
        "queueWithdrawals((address[],uint256[],address)[])": "0dd8dd02",
        "registerAsOperator((address,address,uint32),string)": "0f589e59",
        "renounceOwnership()": "715018a6",
        "setMinWithdrawalDelayBlocks(uint256)": "635bbd10",
        "setPauserRegistry(address)": "10d67a2f",
        "setStrategyWithdrawalDelayBlocks(address[],uint256[])": "1522bf02",
        "slasher()": "b1344271",
        "stakerNonce(address)": "29c77d4f",
        "stakerOptOutWindowBlocks(address)": "16928365",
        "strategyManager()": "39b70e38",
        "strategyWithdrawalDelayBlocks(address)": "c488375a",
        "transferOwnership(address)": "f2fde38b",
        "undelegate(address)": "da8be864",
        "unpause(uint256)": "fabc1cbc",
        "updateOperatorMetadataURI(string)": "99be81c8"
    },
    "id": 30
}