{
    "abi": [
        {
            "type": "function",
            "name": "deregisterSequencer",
            "inputs": [
                {
                    "name": "clusterID",
                    "type": "bytes32",
                    "internalType": "bytes32"
                },
                {
                    "name": "_sequencer",
                    "type": "address",
                    "internalType": "address"
                }
            ],
            "outputs": [],
            "stateMutability": "nonpayable"
        },
        {
            "type": "function",
            "name": "getSequencers",
            "inputs": [
                {
                    "name": "clusterID",
                    "type": "bytes32",
                    "internalType": "bytes32"
                }
            ],
            "outputs": [
                {
                    "name": "",
                    "type": "address[30]",
                    "internalType": "address[30]"
                }
            ],
            "stateMutability": "view"
        },
        {
            "type": "function",
            "name": "initializeCluster",
            "inputs": [
                {
                    "name": "_sequencer",
                    "type": "address",
                    "internalType": "address"
                },
                {
                    "name": "_rollup",
                    "type": "address",
                    "internalType": "address"
                }
            ],
            "outputs": [],
            "stateMutability": "nonpayable"
        },
        {
            "type": "function",
            "name": "registerSequencer",
            "inputs": [
                {
                    "name": "clusterID",
                    "type": "bytes32",
                    "internalType": "bytes32"
                },
                {
                    "name": "_sequencer",
                    "type": "address",
                    "internalType": "address"
                }
            ],
            "outputs": [],
            "stateMutability": "nonpayable"
        },
        {
            "type": "event",
            "name": "InitializeClusterEvent",
            "inputs": [
                {
                    "name": "clusterID",
                    "type": "bytes32",
                    "indexed": false,
                    "internalType": "bytes32"
                }
            ],
            "anonymous": false
        }
    ],
    "bytecode": {
        "object": "0x6080604052348015600f57600080fd5b506104848061001f6000396000f3fe608060405234801561001057600080fd5b506004361061004c5760003560e01c806342d8a7471461005157806366f439c61461007a578063c27ac50c1461008f578063fecca43a146100a2575b600080fd5b61006461005f366004610372565b6100b5565b604051610071919061038b565b60405180910390f35b61008d6100883660046103e2565b61010f565b005b61008d61009d36600461040e565b6101a7565b61008d6100b03660046103e2565b61026b565b6100bd610353565b6000828152602081905260409081902081516103c08101909252600301601e8282826020028201915b81546001600160a01b031681526001909101906020018083116100e65750505050509050919050565b60005b601e8110156101a25760008381526020819052604090206001600160a01b0383169060030182601e811061014857610148610438565b01546001600160a01b03160361019a57600083815260208190526040812060030182601e811061017a5761017a610438565b0180546001600160a01b0319166001600160a01b03929092169190911790555b600101610112565b505050565b6040516bffffffffffffffffffffffff19606083901b1660208201524340603482015260009060540160408051601f19818403018152828252805160209182012060008181528083529290922080546001600160a01b0319908116331782556001820180546001600160a01b038981169184169190911790915560039092018054928916929091169190911790558183529092507faf87f9a392f32e3cd8ff54ac5c459aabcbcb2a7a680c61b9e2b2a442f6bf237a910160405180910390a1505050565b601e60005b601e8110156102fd5760008481526020819052604090206001600160a01b0384169060030182601e81106102a6576102a6610438565b01546001600160a01b0316036102bb57600080fd5b600084815260208190526040812060030182601e81106102dd576102dd610438565b01546001600160a01b0316036102f5578091506102fd565b600101610270565b5080601e0361030b57600080fd5b6000838152602081905260409020829060030182601e811061032f5761032f610438565b0180546001600160a01b0319166001600160a01b0392909216919091179055505050565b604051806103c00160405280601e906020820280368337509192915050565b60006020828403121561038457600080fd5b5035919050565b6103c08101818360005b601e8110156103bd5781516001600160a01b0316835260209283019290910190600101610395565b50505092915050565b80356001600160a01b03811681146103dd57600080fd5b919050565b600080604083850312156103f557600080fd5b82359150610405602084016103c6565b90509250929050565b6000806040838503121561042157600080fd5b61042a836103c6565b9150610405602084016103c6565b634e487b7160e01b600052603260045260246000fdfea2646970667358221220926dd2135e41cade5acd2433b3b9719408b014f24167e282b88928a4a7cd97c464736f6c634300081a0033",
        "linkReferences": {}
    },
    "methodIdentifiers": {
        "deregisterSequencer(bytes32,address)": "66f439c6",
        "getSequencers(bytes32)": "42d8a747",
        "initializeCluster(address,address)": "c27ac50c",
        "registerSequencer(bytes32,address)": "fecca43a"
    },
    "id": 100
}