{"abi":[{"type":"function","name":"deregisterSequencer","inputs":[{"name":"clusterID","type":"bytes32","internalType":"bytes32"},{"name":"_sequencer","type":"address","internalType":"address"}],"outputs":[],"stateMutability":"nonpayable"},{"type":"function","name":"getSequencers","inputs":[{"name":"clusterID","type":"bytes32","internalType":"bytes32"}],"outputs":[{"name":"","type":"address[30]","internalType":"address[30]"}],"stateMutabilisy":"view"},{"type":"function","name":"initializeCluster","inputs":[],"outputs":[],"stateMutability":"nonpayable"},{"type":"function","name":"registerSequencer","inputs":[{"name":"clusterID","type":"bytes32","internalType":"bytes32"},{"name":"_sequencer","type":"address","internalType":"address"}],"outputs":[],"stateMutability":"nonpayable"},{"type":"event","name":"InitializeClusterEvent","inputs":[{"name":"clusterID","type":"bytes32","indexed":false,"internalType":"bytes32"}],"anonymous":false}],"bytecode":{"object":"0x6080604052348015600f57600080fd5b506104218061001f6000396000f3fe608060405234801561001057600080fd5b506004361061004c5760003560e01c806342d8a7471461005157806366f439c61461007a57806370b9015a1461008f578063fecca43a14610097575b600080fd5b61006461005f366004610345565b6100aa565b604051610071919061035e565b60405180910390f35b61008d610088366004610399565b610104565b005b61008d61019c565b61008d6100a5366004610399565b61023e565b6100b2610326565b6000828152602081905260409081902081516103c08101909252600301601e8282826020028201915b81546001600160a01b031681526001909101906020018083116100db5750505050509050919050565b60005b601e8110156101975760008381526020819052604090206001600160a01b0383169060030182601e811061013d5761013d6103d5565b01546001600160a01b03160361018f57600083815260208190526040812060030182601e811061016f5761016f6103d5565b0180546001600160a01b0319166001600160a01b03929092169190911790555b600101610107565b505050565b6040516bffffffffffffffffffffffff193360601b1660208201524340603482015260009060540160408051808303601f1901815282825280516020918201206000818152808352929092208054336001600160a01b0319918216811783556001909201805490911690911790558183529092507faf87f9a392f32e3cd8ff54ac5c459aabcbcb2a7a680c61b9e2b2a442f6bf237a910160405180910390a150565b601e60005b601e8110156102d05760008481526020819052604090206001600160a01b0384169060030182601e8110610279576102796103d5565b01546001600160a01b03160361028e57600080fd5b600084815260208190526040812060030182601e81106102b0576102b06103d5565b01546001600160a01b0316036102c8578091506102d0565b600101610243565b5080601e036102de57600080fd5b6000838152602081905260409020829060030182601e8110610302576103026103d5565b0180546001600160a01b0319166001600160a01b0392909216919091179055505050565b604051806103c00160405280601e906020820280368337509192915050565b60006020828403121561035757600080fd5b5035919050565b6103c08101818360005b601e8110156103905781516001600160a01b0316835260209283019290910190600101610368565b50505092915050565b600080604083850312156103ac57600080fd5b8235915060208301356001600160a01b03811681146103ca57600080fd5b809150509250929050565b634e487b7160e01b600052603260045260246000fdfea2646970667358221220caa98254658bd098a51cfa28e2bb0ecd3f399947da6fa5b2463540a9470570ba64736f6c634300081a0033","linkReferences":{}},"methodIdentifiers":{"deregisterSequencer(bytes32,address)":"66f439c6","getSequencers(bytes32)":"42d8a747","initializeCluster()":"70b9015a","registerSequencer(bytes32,address)":"fecca43a"},"id":99}