{
  "_format": "hh-sol-artifact-1",
  "contractName": "Ssal",
  "sourceName": "contracts/Ssal.sol",
  "abi": [
    {
      "anonymous": false,
      "inputs": [
        {
          "indexed": false,
          "internalType": "bytes32",
          "name": "clusterId",
          "type": "bytes32"
        },
        {
          "indexed": false,
          "internalType": "uint64",
          "name": "blockNumber",
          "type": "uint64"
        },
        {
          "indexed": false,
          "internalType": "string",
          "name": "commitment",
          "type": "string"
        }
      ],
      "name": "BlockCommitmentEvent",
      "type": "event"
    },
    {
      "anonymous": false,
      "inputs": [
        {
          "indexed": false,
          "internalType": "bytes32",
          "name": "clusterId",
          "type": "bytes32"
        }
      ],
      "name": "InitializeClusterEvent",
      "type": "event"
    },
    {
      "inputs": [
        {
          "internalType": "bytes32",
          "name": "clusterId",
          "type": "bytes32"
        },
        {
          "internalType": "address",
          "name": "_sequencer",
          "type": "address"
        }
      ],
      "name": "deregisterSequencer",
      "outputs": [],
      "stateMutability": "nonpayable",
      "type": "function"
    },
    {
      "inputs": [
        {
          "internalType": "bytes32",
          "name": "clusterId",
          "type": "bytes32"
        }
      ],
      "name": "getSequencers",
      "outputs": [
        {
          "internalType": "address[30]",
          "name": "",
          "type": "address[30]"
        }
      ],
      "stateMutability": "view",
      "type": "function"
    },
    {
      "inputs": [
        {
          "internalType": "address",
          "name": "_sequencer",
          "type": "address"
        },
        {
          "internalType": "address",
          "name": "_rollup",
          "type": "address"
        }
      ],
      "name": "initializeCluster",
      "outputs": [],
      "stateMutability": "nonpayable",
      "type": "function"
    },
    {
      "inputs": [
        {
          "internalType": "bytes32",
          "name": "clusterId",
          "type": "bytes32"
        },
        {
          "internalType": "uint64",
          "name": "blockNumber",
          "type": "uint64"
        },
        {
          "internalType": "string",
          "name": "commitment",
          "type": "string"
        }
      ],
      "name": "registerBlockCommitment",
      "outputs": [],
      "stateMutability": "nonpayable",
      "type": "function"
    },
    {
      "inputs": [
        {
          "internalType": "bytes32",
          "name": "clusterId",
          "type": "bytes32"
        },
        {
          "internalType": "address",
          "name": "_sequencer",
          "type": "address"
        }
      ],
      "name": "registerSequencer",
      "outputs": [],
      "stateMutability": "nonpayable",
      "type": "function"
    }
  ],
  "bytecode": "0x608060405234801561001057600080fd5b50610c0f806100206000396000f3fe608060405234801561001057600080fd5b50600436106100575760003560e01c806342d8a7471461005c57806366f439c61461008c578063c27ac50c146100a8578063fdf77eef146100c4578063fecca43a146100e0575b600080fd5b61007660048036038101906100719190610658565b6100fc565b6040516100839190610762565b60405180910390f35b6100a660048036038101906100a191906107aa565b610192565b005b6100c260048036038101906100bd91906107ea565b610294565b005b6100de60048036038101906100d991906109b0565b61040e565b005b6100fa60048036038101906100f591906107aa565b61044e565b005b6101046105eb565b600080838152602001908152602001600020600301601e806020026040519081016040528092919082601e8015610186576020028201915b8160009054906101000a900473ffffffffffffffffffffffffffffffffffffffff1673ffffffffffffffffffffffffffffffffffffffff168152602001906001019080831161013c575b50505050509050919050565b60005b601e81101561028f578173ffffffffffffffffffffffffffffffffffffffff1660008085815260200190815260200160002060030182601e81106101dc576101db610a1f565b5b0160009054906101000a900473ffffffffffffffffffffffffffffffffffffffff1673ffffffffffffffffffffffffffffffffffffffff160361028257600080600085815260200190815260200160002060030182601e811061024257610241610a1f565b5b0160006101000a81548173ffffffffffffffffffffffffffffffffffffffff021916908373ffffffffffffffffffffffffffffffffffffffff1602179055505b8080600101915050610195565b505050565b60008143406040516020016102aa929190610ab7565b6040516020818303038152906040528051906020012090503360008083815260200190815260200160002060000160006101000a81548173ffffffffffffffffffffffffffffffffffffffff021916908373ffffffffffffffffffffffffffffffffffffffff1602179055508160008083815260200190815260200160002060010160006101000a81548173ffffffffffffffffffffffffffffffffffffffff021916908373ffffffffffffffffffffffffffffffffffffffff160217905550826000808381526020019081526020016000206003016000601e811061039357610392610a1f565b5b0160006101000a81548173ffffffffffffffffffffffffffffffffffffffff021916908373ffffffffffffffffffffffffffffffffffffffff1602179055507faf87f9a392f32e3cd8ff54ac5c459aabcbcb2a7a680c61b9e2b2a442f6bf237a816040516104019190610af2565b60405180910390a1505050565b7f85bb1e766cba761522b1fef7e5ca2c86fc0b21379fdb9a736fbdec2a9cbda8ef83838360405161044193929190610b9b565b60405180910390a1505050565b6000601e905060005b601e811015610571578273ffffffffffffffffffffffffffffffffffffffff1660008086815260200190815260200160002060030182601e811061049e5761049d610a1f565b5b0160009054906101000a900473ffffffffffffffffffffffffffffffffffffffff1673ffffffffffffffffffffffffffffffffffffffff16036104e057600080fd5b600073ffffffffffffffffffffffffffffffffffffffff1660008086815260200190815260200160002060030182601e811061051f5761051e610a1f565b5b0160009054906101000a900473ffffffffffffffffffffffffffffffffffffffff1673ffffffffffffffffffffffffffffffffffffffff160361056457809150610571565b8080600101915050610457565b50601e810361057f57600080fd5b8160008085815260200190815260200160002060030182601e81106105a7576105a6610a1f565b5b0160006101000a81548173ffffffffffffffffffffffffffffffffffffffff021916908373ffffffffffffffffffffffffffffffffffffffff160217905550505050565b604051806103c00160405280601e90602082028036833780820191505090505090565b6000604051905090565b600080fd5b600080fd5b6000819050919050565b61063581610622565b811461064057600080fd5b50565b6000813590506106528161062c565b92915050565b60006020828403121561066e5761066d610618565b5b600061067c84828501610643565b91505092915050565b6000601e9050919050565b600081905092915050565b6000819050919050565b600073ffffffffffffffffffffffffffffffffffffffff82169050919050565b60006106d0826106a5565b9050919050565b6106e0816106c5565b82525050565b60006106f283836106d7565b60208301905092915050565b6000602082019050919050565b61071481610685565b61071e8184610690565b92506107298261069b565b8060005b8381101561075a57815161074187826106e6565b965061074c836106fe565b92505060018101905061072d565b505050505050565b60006103c082019050610778600083018461070b565b92915050565b610787816106c5565b811461079257600080fd5b50565b6000813590506107a48161077e565b92915050565b600080604083850312156107c1576107c0610618565b5b60006107cf85828601610643565b92505060206107e085828601610795565b9150509250929050565b6000806040838503121561080157610800610618565b5b600061080f85828601610795565b925050602061082085828601610795565b9150509250929050565b600067ffffffffffffffff82169050919050565b6108478161082a565b811461085257600080fd5b50565b6000813590506108648161083e565b92915050565b600080fd5b600080fd5b6000601f19601f8301169050919050565b7f4e487b7100000000000000000000000000000000000000000000000000000000600052604160045260246000fd5b6108bd82610874565b810181811067ffffffffffffffff821117156108dc576108db610885565b5b80604052505050565b60006108ef61060e565b90506108fb82826108b4565b919050565b600067ffffffffffffffff82111561091b5761091a610885565b5b61092482610874565b9050602081019050919050565b82818337600083830152505050565b600061095361094e84610900565b6108e5565b90508281526020810184848401111561096f5761096e61086f565b5b61097a848285610931565b509392505050565b600082601f8301126109975761099661086a565b5b81356109a7848260208601610940565b91505092915050565b6000806000606084860312156109c9576109c8610618565b5b60006109d786828701610643565b93505060206109e886828701610855565b925050604084013567ffffffffffffffff811115610a0957610a0861061d565b5b610a1586828701610982565b9150509250925092565b7f4e487b7100000000000000000000000000000000000000000000000000000000600052603260045260246000fd5b60008160601b9050919050565b6000610a6682610a4e565b9050919050565b6000610a7882610a5b565b9050919050565b610a90610a8b826106c5565b610a6d565b82525050565b6000819050919050565b610ab1610aac82610622565b610a96565b82525050565b6000610ac38285610a7f565b601482019150610ad38284610aa0565b6020820191508190509392505050565b610aec81610622565b82525050565b6000602082019050610b076000830184610ae3565b92915050565b610b168161082a565b82525050565b600081519050919050565b600082825260208201905092915050565b60005b83811015610b56578082015181840152602081019050610b3b565b60008484015250505050565b6000610b6d82610b1c565b610b778185610b27565b9350610b87818560208601610b38565b610b9081610874565b840191505092915050565b6000606082019050610bb06000830186610ae3565b610bbd6020830185610b0d565b8181036040830152610bcf8184610b62565b905094935050505056fea2646970667358221220a51274e77c082fbcb64122326be457e7517bffb8a6969cf71a4841d61ddeda3c64736f6c63430008180033",
  "linkReferences": {},
  "deployedLinkReferences": {}
}